:1000000000800020BD0100001D390000D53800002F
:10001000D5380000D5380000D5380000D5380000AC
:10002000D5380000D5380000D53800001D39000053
:100030001D390000D53800000555000009560000A4
:100040001D3900001D3900001D3900001D39000058
:100050001D3900001D3900001D3900001D39000048
:100060001D3900001D3900001D3900001D39000038
:100070001D3900001D3900001D3900001D39000028
:100080001D3900001D3900001D3900001D39000018
:100090001D3900001D3900001D3900001D39000008
:1000A00009350000153500001D3900001D3900001C
:1000B0001D3900001D3900001D3900001D390000E8
:1000C0001D3900001D3900001D3900001D390000D8
:1000D0001D3900001D3900001D3900001D390000C8
:1000E0001D3900001D3900001D3900001D390000B8
:1000F0001D390000414400001D390000895C0000EA
:100100001D390000B55D00001D3900001D390000DB
:100110001D3900001D3900001D3900001D39000087
:100120001D3900001D3900001D3900001D39000077
:100130001D3900001D3900001D3900001D39000067
:100140001D3900001D3900001D3900001D39000057
:100150001D3900001D3900001D3900001D39000047
:100160001D390000BD4600001D3900001D3900008A
:100170001D3900001D3900001D3900001D39000027
:100180001D3900001D3900001D3900001D39000017
:100190001D3900001D3900001D3900001D39000007
:1001A0001D3900001D3900001D3900001D390000F7
:1001B0001D3900001D3900001D390000564B4CF25E
:1001C000205210B51A804DF628121A8000BF00BFC9
:1001D00003F0A8FB514B4FF010621A60504A9A602E
:1001E000504ADA60504A136813F4807304D14F49BF
:1001F0000B604FF4A85313604D4B1A78110703D5C9
:100200001A7842F008021A704A4B4B492A221A7097
:100210004A4A4B4B8B4204D252F8040F43F8040B6A
:10022000F8E7484B484900228B4202D243F8042B9E
:10023000FAE74649464A002352F8230041F82300D2
:1002400001336F2BF8D1434B434A802103F8011B44
:100250009342FBD1414B3D4A1A60414B8A221A70AE
:10026000A3F5805324225A70A0221A709A7992071B
:10027000FCD59A79D406FCD43A4A937903F00C035E
:10028000082B384BF9D103221A7140225A719A79FE
:100290009006FCD5334A9179324B4906FBD5324A58
:1002A000324911600221516020221A709A7902F0BD
:1002B0000C020C2AFAD12E4B2E4A1A602E4B2F4AD2
:1002C0001A6000225A60072243F8042C2C4AC3F813
:1002D0000C2D62B603F01AFD144B1B68DA0705D526
:1002E000284803F085FC284B284A1A60284B1B78C5
:1002F0005B0609D5244C254B22689A4204D121483B
:1003000003F076FC0023236005F020FE03F010FBD1
:1003100005F092FBFEE700BF0E2005403080044050
:10032000823F04000100002B10D0034014D0034092
:1003300002D0074000E00740C8D4FF1F90AE000085
:1003400020C3FF1FC8D4FF1F0C18002000BEFF1FD2
:100350000000000000E400E05FE400E008ED00E0E1
:100360000050064000400640448004400000030165
:1003700004800440C010050014E000E0FF76010096
:1003800000002020CD641D5B1CE00340A5C3945AEF
:1003900000F00740FFFFFFFFFFFFFFFFFFFFFFFF32
:1003A000FFFFFFFFFFFFFFFFFFFFFFFFFFFFFFFF5D
:1003B000FFFFFFFFFFFFFFFFFFFFFFFFFFFFFFFF4D
:1003C000FFFFFFFFFFFFFFFFFFFFFFFFFFFFFFFF3D
:1003D000FFFFFFFFFFFFFFFFFFFFFFFFFFFFFFFF2D
:1003E000FFFFFFFFFFFFFFFFFFFFFFFFFFFFFFFF1D
:1003F000FFFFFFFFFFFFFFFFFFFFFFFFFFFFFFFF0D
:10040000FFFFFFFFFFFFFFFFFFFFFFFFDEF9FFFF23
:1004100010B5054C237833B9044B13B10448AFF33E
:1004200000800123237010BDC8D4FF1F000000000E
:1004300094AE0000084B10B51BB108490848AFF353
:1004400000800848036803B910BD074B002BFBD0A0
:10045000BDE81040184700BF00000000CCD4FF1FCB
:1004600094AE0000C8D4FF1F00000000704700BF1A
:10047000014B1E221A6070470814002008B503487B
:1004800002F004F9024B187008BD00BF0CDBFF1F1F
:1004900004DBFF1FF8B5234803F0CEF8214803F032
:1004A000BBF818B3204A214B12681B681360938B6A
:1004B0001F482049204C23F020031B041B0C6FF025
:1004C000030601259383D66005700A791B485311F2
:1004D0009B0003F1604303F5624302F01F02012118
:1004E00001FA02F21A6023790370F8BD0D48144E28
:1004F0000D4D114C03F0BEF8124A134BD6F800E034
:1005000012881B680B492F6826680D6800FB02E201
:1005100000EB400003EB4010031D2B60386032609D
:10052000D3E700BFF4140020EC140020ECD4FF1F2C
:100530000CD5FF1F08150020E41400201F80004088
:10054000FCD4FF1F02D5FF1FF8D4FF1F70B4C4896D
:10055000A1421CDA048AA24219DA047A54B1022CAC
:1005600017D0012C1CD085894489013D6D1A114694
:100570002A4600E0448904FB021202EB4202416970
:10058000187888540A44597851709B78937070BCDD
:10059000704744898589661E013D711AAA1AEAE7E7
:1005A0004489651EAD1A0A462946E4E7F0B5ADF563
:1005B000815D81B0374C6846002105F097F92046EF
:1005C00002F02AF800285BD0D4F81C2801230DF58E
:1005D000026184F81938013A0B4612F8010F03F84A
:1005E000010B0DF581508342F7D14FF4006208A84A
:1005F00003F0D6F808A9102226484D1E01F0BCFFD2
:100600000DF12F0715F8016F694604A805F082F96E
:10061000214904A805F0E2F9314605F0EDF901465B
:10062000684605F087F904A805F020F9AF42E9D142
:10063000184D0C21284601F069FF694604A805F011
:1006400069F923785BB1D5F8280895F82D18036867
:100650001B68984704A9D5F8280805F053F804A8A2
:1006600005F004F941F2883301220021094802F023
:10067000D1F8684605F0FAF80DF5815D01B0F0BDDE
:100680000DF502610B4603F8010B0DF58152934203
:10069000F9D1AAE70CDBFF1FF4710000074A1378B9
:1006A000002BFCD10648428983898169406903FB9C
:1006B00002F202EB420203F073B800BFE4D4FF1F62
:1006C00028DAFF1F184A1378F0B493B9174A90F844
:1006D0002040174902F5FF70002301E032F8023F85
:1006E00004FB03F31B12904221F8023FF6D1F0BC49
:1006F0007047104C104D47898389267829782170DE
:1007000003FB07F3C4692E7003FB01F103FB06F33F
:1007100001EB410103EB43032144234400248161A5
:1007200043611470D2E700BFE4D4FF1F447200009D
:1007300022D8FF1F00C4FF1FE5D4FF1FC37CF0B504
:10074000D3B94589002D38D005FB01F1836901EB50
:10075000410105EB45050B4402EB45055C789878B3
:1007600013F8031B240200020902548090801180B8
:1007700006329542F2D1F0BD4389002BFBD0876948
:100780000E4D002401FB034303EB4303FE1817F84F
:1007900003C096F802E0737835F81EE035F81330A0
:1007A00035F81C601680A2F804E0538043890134B8
:1007B000A34202F10602E5DCF0BDF0BD24D8FF1F24
:1007C000F0B5C47C4389A4B9002B33D0866901FB02
:1007D000034303EB4303F518F65C6B78AD78957033
:1007E0001670537043890134A34202F10302EDDC19
:1007F000F0BD002BFCD0104F0024866901FB0343A1
:1008000003EB4303F518F65C95F801E0AB7837F895
:10081000166037F81E5037F8133036121B122D129F
:1008200016705570937043890134A34202F103029C
:10083000E3DCF0BDF0BD00BF24D8FF1F704700BF50
:10084000704700BF10B5064C204601F027FF204638
:1008500001F0E2FE10B1012384F8193810BD00BF89
:100860000CDBFF1F2DE9F0432F4CADF5805D83B00D
:10087000204601F013FF0746204601F0CDFE002878
:1008800046D0D4F81C2801230DF6080184F8193845
:10089000013A0B4612F8010F03F8010B0DF58050D9
:1008A00008308342F6D10DF108084FF4006240464B
:1008B00002F076FF41464FF4CF621B48DFF870909C
:1008C00001F05AFE3F2F28BF3F273FB24546002484
:1008D00089FB0432A2EBE4726B7895F802E018F819
:1008E00004608DF8053012B210488DF806E003342C
:1008F00001AB39468DF80460FFF728FEB4F5CF6FE1
:1009000005F10305E4D10DF5805D03B0BDE8F0838A
:100910000DF608010B4603F8010B0DF58052083265
:100920009342F8D1BFE700BF0CDBFF1F28DAFF1F9F
:100930005655555570B5694C0821204601F0E6FD25
:10094000237843B941F28833012200216348BDE88E
:10095000704001F05FBFD4F82808614A0368156849
:100960001B6894F82D189847294600230A22D4F8CA
:10097000280804F0FDFE5B4A23781568002B3ED062
:10098000D4F8280894F82D1803681B68984729465E
:10099000D4F8280804F02CFF2378002BD2D0D4F808
:1009A0002808514A036815681B6894F82D18984761
:1009B0002946D4F8280804F01BFF4C4A2378156810
:1009C000002B3FD0D4F8280894F82D1803681B6832
:1009D00098472946D4F8280804F00AFF2378002B0A
:1009E000B0D0D4F82808424A0368156894F82D1846
:1009F0001B6898472946D4F8280804F0F9FE3D4AB8
:100A000023781668354D002B41D0D5F8280895F885
:100A10002D1803681B6898473146D5F8280804F05C
:100A2000E7FE2B78002B8DD0D5F82808324A0368D2
:100A3000166895F82D181B6898473146D5F8280890
:100A400004F0D6FE2D4A23781668244D002B3FF47F
:100A500079AFD5F8280895F82D1803681B689847D2
:100A60003146D5F8280804F0C3FE2B78002B3FF45C
:100A700069AFD5F82808224A0368166895F82D183A
:100A80001B6898473146D5F8280804F0B1FE237852
:100A90001C4A124C1568002B3FF454AFD4F82808B8
:100AA00094F82D1803681B6898472946D4F828083D
:100AB00004F09EFE2378002B3FF444AFD4F82808BE
:100AC000114A0368156894F82D181B689847294641
:100AD000D4F8280804F08CFE34E700BF0CDBFF1FBD
:100AE000FCDAFF1F1CC4FF1F10C4FF1F18C4FF1F28
:100AF00020C4FF1F24C4FF1F34C4FF1F0CC4FF1FEA
:100B00002CC4FF1F08C4FF1F38C4FF1F10B5A0F17D
:100B1000080482B0D3B21E2C4FEA22228DF8043092
:100B20008DF806308DF805200BD8A1F11C033E2B63
:100B300007D8C21F1B3912B209B201AB0248FFF736
:100B400005FD02B010BD00BF28DAFF1F10B5214C13
:100B5000214A2046012101F0D1FC20461F4901F025
:100B6000C9FC20461E4A022101F0C8FC20461D4A4D
:100B7000032101F0C3FC20461B4A052101F0BEFC05
:100B800020461A4A062101F0B9FC2046184A0721DE
:100B900001F0B4FC2046174A082101F0AFFC2046C2
:100BA000154A092101F0AAFC2046144A0A2101F045
:100BB000A5FC2046124A0B2101F0A0FC2046114A58
:100BC0000C2101F09BFC20460F4A0D21BDE810408E
:100BD00001F094BC0CDBFF1F3D0800004108000041
:100BE0007D0400006D040000410F0000450F00006F
:100BF0007104000035090000C90F000065080000FD
:100C000045080000AD050000A911000070B50D24D5
:100C100020466FF07F4222210134FFF777FF212C1D
:100C2000F6D1232421466FF07F420D20FFF76EFF9F
:100C300021466FF07F4220200134FFF767FF552CDB
:100C4000F0D10D2420466FF07F4255210134FFF78B
:100C50005DFF212CF6D1112420466FF07F425621F2
:100C6000FFF754FF20466FF07F425721FFF74EFFFA
:100C700020466FF07F425821FFF748FF20466FF073
:100C80007F4259210134FFF741FF1D2CE4D1134B62
:100C90001B7803BB124B134E1B78002B08BF4FF47D
:100CA0007F4623250E242046324629460134FFF78D
:100CB0002DFF202CF7D10135292DF3D10E2420460C
:100CC000002229460134FFF721FF202CF7D10135FE
:100CD000552DF3D170BD4FF47F06E2E708DBFF1F0F
:100CE00005DBFF1F00A5FF0038B5142420466FF078
:100CF0007F4269210134FFF709FF1A2CF6D16A24DB
:100D000021466FF07F421420FFF700FF21466FF06D
:100D10007F4219200134FFF7F9FE702CF0D1142422
:100D200020466FF07F4270210134FFF7EFFE1A2C4E
:100D3000F6D16FF07F4271211620FFF7E7FE6FF0CA
:100D40007F4271211720FFF7E1FE124B1B78EBB9B0
:100D5000114B124D1B78002B08BF4FF47F45152413
:100D600020462A466A210134FFF7D0FE192CF7D11C
:100D70006B2515242046002229460134FFF7C6FEC4
:100D8000192CF7D10135702DF3D138BD4FF47F0503
:100D9000E5E700BF08DBFF1F05DBFF1F00A5FF0025
:100DA0002DE9F047058AC389013D2DB25F1E002D54
:100DB0003FB2B6BF2C4600240025002FB6BF3E46EA
:100DC000002600270135B34229DD002C27DB028AEB
:100DD0000FFA84FE964522DABB42027ADABF03F1AB
:100DE000FF3E0FFA8EFEBE46F2B91FFA8EFE1FFAC4
:100DF00084F94389D0F814C091F8008009FB0323DB
:100E000003EB43030CEB030A0CF803804B788AF8DE
:100E1000013001328B788AF802309645E9DA0134E4
:100E2000AC422CD0C389CEE7022A2AD0012A54D062
:100E3000B0F80C8008F1FF381FFA88F8CEEB080EE6
:100E40001FFA8EF34345EADC1FFA84F94289D0F891
:100E500014E091F800C003FB029202EB42020EEB99
:100E6000020A0EF802C04A788AF8012001338A7813
:100E70008AF802204345E9DD0134AC42D2D1BDE815
:100E8000F0874389B0F80C8003F1FF3C1FFA8CFC1B
:100E9000CEEB0C0E08F1FF381FFA8EF2C4EB0808F7
:100EA00062451FFA88F801DDB9E74389D0F814E0FC
:100EB00091F8009008FB032303EB430301320EF883
:100EC0000390734491F801E083F801E091F802E0A7
:100ED00083F802E06245E8DDA1E7438903F1FF38CA
:100EE000C4EB08081FFA8EFE1FFA88F84FF0000CBA
:100EF00000E04389426991F800900CFB038303EB07
:100F000043030CF1010C02F8039013444A785A7021
:100F10008A789A70E645ECDA81E700BF00B583B0C5
:100F2000002301A905488DF804308DF805308DF8AF
:100F30000630FFF735FF03B05DF804FB28DAFF1F2A
:100F4000FFF7ECBF10B5194B1B7882B013B1184BEB
:100F50001B78DBB9174C2368002B04DDFFF7C4FEB8
:100F60002368013B2360144B1B7863B913490B784A
:100F7000124A002BFBD101241470FFF78FFB104B9A
:100F80001C7002B010BDFFF7AFFEEFE7002301A910
:100F90000C488DF804308DF805308DF80630FFF7D9
:100FA000FFFEFFF733FEFFF79FFED3E724DAFF1FB4
:100FB00008DBFF1F0814002005DBFF1FE4D4FF1F20
:100FC00006DBFF1F28DAFF1F10B5104C82B0204649
:100FD00001F064FB8DF80600204601F05FFB8DF800
:100FE0000500204601F05AFB8DF80400019B0848DB
:100FF000DAB269461B0A8DF800208DF802208DF8C0
:101000000130FFF7CDFE02B010BD00BF0CDBFF1FAB
:1010100028DAFF1FF0B583B002F008FE294A2A49FA
:101020001368C31A8B421DD9284B294F1B681060C7
:10103000A3F51C533220113B264E274D386046F253
:1010400036306FF063028342244C254B32604FF000
:1010500000012A6098BF0122217094BF1A70197094
:10106000FFF768FC1F4B1B7823B11F4801F04EFBB4
:1010700003B0F0BD1D4D1E482B7828220A3301A96C
:101080008DF805308DF804208DF80620FFF788FED6
:10109000FFF7BCFD17490B78164A03F0FF04002B3D
:1010A000F9D101231370FFF7F9FA2B780F4A0E4894
:1010B0000133DBB2192B94BF1370147001F026FBBF
:1010C00003B0F0BDB41400208096980024C4FF1F24
:1010D0001CC4FF1F08C4FF1F34C4FF1F05DBFF1F14
:1010E00008DBFF1F06DBFF1F0CDBFF1F07DBFF1FFB
:1010F00028DAFF1FE4D4FF1F2DE9F04F87B0DFF897
:10110000A480109C0393631E049304F10903834697
:10111000029205930E46049B13F8017F0493002F5F
:101120003AD0D8F800305A78002A38D01A78B6B2B7
:101130004FF0000A2AB3029ACDF804A00AEB020984
:101140005FFA8AF5DDF80CA00FFA89F90024E1B204
:101150002A46384602F0D8FA311909B2013448B1AA
:10116000002907DBB9F1000F53464A46584601DB18
:10117000FFF7ECF9D8F800301A78A242E7DCDDF886
:1011800004A059780AF1010A5145D3DC324416B261
:10119000059B049A9342BED107B0BDE8F08F1A7840
:1011A000B6B2F3E704C4FF1F30B5174885B001F0AD
:1011B00089FA0024054603A914488DF80C408DF8DF
:1011C0000D408DF80E40FFF7EBFD052002F0B6FA5A
:1011D0000F4A00952146106003ABFF250A220B48F9
:1011E0008DF80C408DF80E408DF80D50FFF784FF00
:1011F00008490B78074A002BFBD101231370FFF736
:101200004DFA05B030BD00BF0CDBFF1F28DAFF1F11
:1012100004C4FF1FE4D4FF1FF0B5214B21481C7804
:1012200090FBF4F00A3080B21F4B93FBF4F40A38C1
:1012300080B20B22002140FA02F30A339BB2013A3A
:10124000B3F5B47F2CBFC91801F5B471551CF2D1A8
:10125000A142ECD8154A164B16681C68154D0B2197
:1012600040FA01F206FB02F385FB03E71F440A3252
:10127000DB17C3EBE71392B20A33B2F5B47F01F187
:10128000FF319BB205D2C2F5B47213449BB24FF446
:10129000B472628024F8043B4B1CE1D1F0BD00BF66
:1012A00002C4FF1FB0710B0060E3160008D5FF1FDA
:1012B000F0D4FF1F818080802DE9F04F4E4B4F48C6
:1012C000197889B002F09AF9FFF7A6FF0023069378
:1012D00001230793494802F097F9002840F07282F1
:1012E000069B0133DBB2052B06930AD9079B002B23
:1012F00040F0FE83424B1B780C2B00F21484079BBA
:101300000693404B1B780593002B00F051833E4C15
:101310003E4BBDF914201B68384833F8226003EBBC
:1013200082014D8802F07EF9394B3A4A1B681168F8
:101330005FFA80F909EB490703EB47173A460023A8
:10134000C8189680D58040885080C85A27F8130066
:101350000433302B02F10802F2D12F48036813F056
:10136000010500F09F832D48036813F0010500F08C
:1013700083834FF4C0720021294805F055F94FF4DA
:10138000C0720021274805F04FF923681C68002C23
:1013900000F0C383BDF8145005F110062368204AFD
:1013A0005B6820462946984723681E4A5B682046AA
:1013B000314698476468002CF0D1194B1C885D8831
:1013C0009E88184B1F88B3F802E09888164A174B7E
:1013D00012781B880492164ADFF844801268029241
:1013E00009FB03F39B084FF00009DFF838C00393B3
:1013F000CDF804902EE000BF05D5FF1FF4140020A7
:1014000002C4FF1F18D8FF1FE8D4FF1FF4D4FF1F2A
:10141000F8D4FF1FF0D4FF1F94D6FF1F10D5FF1F75
:1014200098D6FF1F14D5FF1F04D5FF1F02D5FF1F3D
:10143000FCD4FF1FB8F80640B8F80850B8F80A60A6
:10144000BCF80670BCF808E0BCF80A0008F1060811
:101450000CF1060C00224FEA263B114613466BF3B3
:1014600004124FEA243B6BF300024FEA262B6BF386
:1014700004134FEA273B6BF386124FEA242B6BF3DE
:1014800000034FEA253B6BF3C7124FEA272B6BF3A0
:1014900086134FEA2E3B6BF3C3024FEA252B6BF307
:1014A000C7134FEA203B6BF345124FEA2E2B6BF329
:1014B000C3034FEA663B6BF30C324FEA202B6BF30E
:1014C00045134FEA643B6BF308224FEA662B6BF33C
:1014D0000C334FEA673B6BF38E324FEA642B6BF3AE
:1014E00008234FEA653B6BF3CF324FEA672B4FEA95
:1014F000261A6BF38E334FEA6E3B6AF304116BF3DB
:10150000CB224FEA241A4FEA652B6AF300016BF3F2
:10151000CF334FEA271A4FEA603B6AF386116BF329
:101520004D324FEA251A4FEA6E2B6AF3C7116BF35F
:10153000CB234FEA2E1A4FEAA63B6AF3C3016BF3A3
:1015400014524FEA201A4FEA602B6AF345116BF3ED
:101550004D334FEA661A4FEAA43B6AF30C316BF342
:1015600010424FEA641A4FEAA62B6AF308216BF384
:1015700014534FEA671A4FEAA73B6AF38E316BF3B5
:1015800096524FEA651A4FEAA42B6AF3CF316BF3F8
:1015900010434FEA6E1A4FEAA53B6AF3CB216BF377
:1015A000D7524FEA601A4FEAA72B6AF34D316BF31B
:1015B00096534FEAA61A4FEAAE3B6AF314516BF307
:1015C000D3424FEAA41A4FEAA52B6AF310416BF3FA
:1015D000D7534FEAA71A4FEAA03B6AF396516BF331
:1015E00055524FEAA51A4FEAAE2B6AF3D7516BF367
:1015F000D3434FEAAE1A4FEAE63B6AF3D3416BF3AB
:101600001C724FEAA01A4FEAA02B6AF355516BF3F4
:1016100055534FEAE61AF6124FEAE43B6AF31C719F
:1016200066F31C734FEAE41AE412FE136AF31861BE
:1016300064F318634FEAE71A6BF31862FF12EC13B6
:1016400066F39E7267F39E73EE116AF39E71ED125C
:1016500064F3DF7266F3DF714FEAEE344FEAEE16A1
:1016600065F3DF734FEAEE2E64F3DB6266F3DB6152
:10167000C413C6116EF3DB63C012039D66F35D7184
:1016800060F35D73029E019805EB990564F35D724A
:10169000013006EB8504019043F0023046F8251036
:1016A00020610198A26041F0023E0499C4F80CE068
:1016B00042F0023740288944676163607FF4BAAE24
:1016C0000598049D00F001030021C0F3400463F37A
:1016D0000001024664F3C711C0F38000C2F3C002E8
:1016E00060F3041162F3861163F3082164F3CF31D0
:1016F00060F30C3162F38E3163F3104164F3D75120
:1017000060F3145162F3965163F31861039B03EB8A
:101710000513029D64F3DF7160F31C7105EB830414
:1017200062F39E7145F82310AF486160A16001F03B
:1017300091FFAE4BAD4A1B78AD4C0133DBB20F2BA2
:1017400088BF002313702378002B3FF4C3ADA94B4F
:101750001B780C2B00F2D681A74DA34801262E60E2
:1017600001F088FFA54AA64BB2F800E0A54A1B6825
:101770001768A54A00FB0E7700EB40001168A34AEA
:1017800003EB4010031D12680B60A14BA1491B68BD
:1017900010601F60938B0E7023F080031B041B0CE2
:1017A0009383938B9BB2002043F0200304260921EE
:1017B0009383D660207029608B4801F025FF0028B4
:1017C0003FF48EAD01210E2002F02AFA01210620FD
:1017D00002F026FA0121022002F022FA012115204E
:1017E00002F01EFA0121052002F01AFA0121082058
:1017F00002F016FA0121142002F012FADFF8F89133
:101800008548864E864F87497A4D874A874BDFF851
:1018100048820024C9F8004004600A2095F800E0DE
:1018200093FBFEF33B600860336013688048DFF889
:101830002CE28049764D43F4517313604FF4517399
:1018400003601368704843F4003343F480731360FB
:10185000DEF8003007F57047343743F00203CEF866
:1018600000303B6843F002033B600B68724F43F06B
:1018700080030B60214603F059FD2146634803F0C5
:1018800055FD2146624803F051FD5D4BD3F800C081
:101890005D4B1A685D4B0CF104014FF6FC704FF084
:1018A000080E1B6890821160C2F818E017610121D0
:1018B0000420022740F2011ED1829780D183D0609C
:1018C00094839060A2F806E0504AC3F800C09F805D
:1018D000127995F804C01E6102F1804202F50432CB
:1018E0004FEA0C26D860A3F806E0986046F0200680
:1018F0004FF6F07C4FF0200EB120D982A3F814C02F
:10190000D983C3F818E09E83147010703D4A2B6889
:1019100012681A60494EDFF848C10C229A801E6195
:101920002879DA82DA839F839F8B454EDC604211EF
:1019300092006FEA474702F160426FEA574700F1B1
:10194000100E02F56142BFB200F01F009F83DC80E1
:101950009C829C61C3F8088001FA00F02A4B46F88B
:101960002EC010601B79374C374803F1604303F5F4
:101970006443FE221A70244B1A7953119B0003F121
:10198000604302F01F0703F561431032B94046F887
:10199000224019601D4A1C4B11791B792A7903706A
:1019A000092301700270C9F8003009B0BDE8F08F5A
:1019B000264F274C3B78002B40F08A8023681D6817
:1019C000244E3DB94EE02B6828461B6898476D6849
:1019D000002D47D03378002BF5D02B68054ADB6803
:1019E000117828469847EEE7F414002018D8FF1F16
:1019F0000CD5FF1F02C4FF1F0090034002D5FF1F3C
:101A0000F8D4FF1FFCD4FF1F08150020EC140020A1
:101A1000E414002001D5FF1F0490034018900340F8
:101A2000089003401090034030900440B0710B00C8
:101A3000349004400080004020D8FF1FC0F00F40C9
:101A400000BEFF1FED1C00001B80004003C4FF1FF1
:101A5000E8D4FF1F01C4FF1F81D4E7BF40800440CA
:101A600095040000374D2B7800273770002B42D1AA
:101A7000354B1B7805934BE401F072FF00283FF4CF
:101A800078AC324B2A4603F5C07123F8062C23F8B4
:101A9000042C23F8022C06338B42F6D12C4801F09B
:101AA00065FF66E401F05CFF00283FF45CAC294B65
:101AB0002A4603F5C07123F8062C23F8042C23F8DA
:101AC000022C06339942F6D1234801F04FFF4AE435
:101AD00023681D684DB1214E3178284601F0CCFDB8
:101AE0006D68002DF8D123681D6800233B7067E7FF
:101AF0000690079005E4FFF78FFB134B2F701B78C0
:101B0000059305E4164A174E013B1370FFF784FB5B
:101B1000154A0123137033701EE62046A646274659
:101B20002646254652E40E4A0E4E013B1370FFF73F
:101B300073FB0D4A012313703370079B0693FFF765
:101B4000E0BB00BF0DD5FF1F18D8FF1F1AD5FF1F20
:101B500010D5FF1F9ED6FF1F94D6FF1F06D5FF1F6F
:101B600002C4FF1F01C4FF1F00D5FF1F70B540F264
:101B7000836088B002F08CF90F214B484B4C03F086
:101B8000D1FA4B4803F0E4FD0F21474802F054FB23
:101B9000484803F0DDFD0121162002F041F8012143
:101BA000172002F03DF8FEF7D1FF217800295CD024
:101BB000414C424B617B2069049301220023122691
:101BC0001325059203931A4600930296019501F09E
:101BD000DDF83B4B21691A683A48C1F878020AB926
:101BE00050E01A465368002BFBD1374B5360344802
:101BF000FFF762FB0021122002F012F800211320EF
:101C000002F00EF8314A32492F4840F203230B60AC
:101C10000024136007A98DF81C408DF81D408DF835
:101C20001E40FFF7BDF8052001F088FD294B2A4A28
:101C300018602146009207ABFF250A2222488DF842
:101C40001C408DF81E408DF81D50FFF755FA2349B2
:101C50000B78224A002BFBD121492248012337244B
:101C6000137004600B7008B070BD204600F04EFC8D
:101C7000237853B941F28833012200210B4800F048
:101C8000C9FD95E7104A1A60B1E7D4F8280894F81E
:101C90002D1803681B689847D4F828081249036870
:101CA00009225B689847E5E7187200000CDBFF1F0C
:101CB00068CAFF1F58CAFF1FCC140020A08601006D
:101CC00000DBFF1F400D030028DAFF1F04A00440C3
:101CD00000A0044004C4FF1F34720000E4D4FF1FBE
:101CE0000DD5FF1F08D5FF1F287200002DE9F04F0A
:101CF00087B000230593474801F086FC002840F098
:101D00006F82059B0133DBB2052B059305D9424B4E
:101D10001B780C2B00F2D9820590404B1B78049362
:101D2000002B00F060823E4C3E4BBDF910201B683A
:101D3000384833F8226003EB82014D8801F072FCD1
:101D4000394B3A4A1B6811685FFA80F909EB490779
:101D500003EB47173A460023C8189680D580408881
:101D60005080C85A27F813000433302B02F10802C0
:101D7000F2D12F48036813F0010500F06E822D4860
:101D8000036813F0010500F052824FF4C072002185
:101D9000294804F049FC4FF4C0720021274804F0A0
:101DA00043FC23681C68002C00F09D82BDF8105095
:101DB00005F110062368204A5B68DFF88080204622
:101DC000294698472368204642465B683146984733
:101DD0006468002CEED1184BB8F800701C885D8840
:101DE0009E88B8F802E0B8F80400154B154A1B8825
:101DF000154912780968019109FB03F39B084FF01C
:101E000000090392DFF83080DFF830C00293CDF88C
:101E100000902BE0F414002002C4FF1F18D8FF1F0D
:101E2000E8D4FF1FF4D4FF1FF8D4FF1FF0D4FF1F26
:101E300094D6FF1F10D5FF1F98D6FF1F14D5FF1F84
:101E400002D5FF1F04D5FF1FFCD4FF1FB8F80640C2
:101E5000B8F80850B8F80A60BCF80670BCF808E09A
:101E6000BCF80A0008F106080CF1060C00224FEA43
:101E7000263B114613466BF304124FEA243B6BF3E7
:101E800000024FEA262B6BF304134FEA273B6BF358
:101E900086124FEA242B6BF300034FEA253B6BF3CA
:101EA000C7124FEA272B6BF386134FEA2E3B6BF3D7
:101EB000C3024FEA252B6BF3C7134FEA203B6BF3AA
:101EC00045124FEA2E2B6BF3C3034FEA663B6BF3CD
:101ED0000C324FEA202B6BF345134FEA643B6BF354
:101EE00008224FEA662B6BF30C334FEA673B6BF328
:101EF0008E324FEA642B6BF308234FEA653B6BF39A
:101F0000CF324FEA672B4FEA261A6BF38E334FEA34
:101F10006E3B6AF304116BF3CB224FEA241A4FEAAB
:101F2000652B6AF300016BF3CF334FEA271A4FEAB0
:101F3000603B6AF386116BF34D324FEA251A4FEA84
:101F40006E2B6AF3C7116BF3CB234FEA2E1A4FEABD
:101F5000A63B6AF3C3016BF314524FEA201A4FEA0F
:101F6000602B6AF345116BF34D334FEA661A4FEA63
:101F7000A43B6AF30C316BF310424FEA641A4FEA48
:101F8000A62B6AF308216BF314534FEA671A4FEA42
:101F9000A73B6AF38E316BF396524FEA651A4FEA0C
:101FA000A42B6AF3CF316BF310434FEA6E1A4FEA5A
:101FB000A53B6AF3CB216BF3D7524FEA601A4FEA85
:101FC000A72B6AF34D316BF396534FEAA61A4FEAEB
:101FD000AE3B6AF314516BF3D3424FEAA41A4FEAB3
:101FE000A52B6AF310416BF3D7534FEAA71A4FEAB8
:101FF000A03B6AF396516BF355524FEAA51A4FEA8C
:10200000AE2B6AF3D7516BF3D3434FEAAE1A4FEAC4
:10201000E63B6AF3D3416BF31C724FEAA01A4FEA16
:10202000A02B6AF355516BF355534FEAE61AF6129B
:102030004FEAE43B6AF31C7166F31C734FEAE41A3F
:10204000E412FE136AF3186164F318634FEAE71AA7
:102050006BF31862FF12EC1366F39E7267F39E73C4
:10206000EE116AF39E71ED1264F3DF7266F3DF71B5
:102070004FEAEE344FEAEE1665F3DF734FEAEE2EC9
:1020800064F3DB6266F3DB61C413C6116EF3DB63DA
:10209000C012029D66F35D7160F35D73019E00984E
:1020A00005EB990564F35D72013006EB8504009041
:1020B00043F0023046F8251020610098A26041F0FC
:1020C000023E0399C4F80CE042F0023740288944EC
:1020D000676163607FF4BAAE049D002305F00100E0
:1020E000C5F3400160F30003C5F3800261F3C71339
:1020F000C5F3C00462F3041364F3861360F308238A
:1021000061F3CF3362F30C3364F38E3360F3104327
:1021100061F3D75362F3145364F3965360F3186377
:10212000039D029861F3DF73019900EB051062F3E0
:102130001C7301EB800264F39E7341F820305360FE
:1021400093606C486C4C01F085FA6C4B6B4A1B78C1
:102150000133DBB20F2B88BF002313702378002BD1
:102160003FF4C9AD664B1B780C2B00F29C80654D8B
:102170006048654F01262E6001F07CFA6349644B8C
:102180000988D7F800C01B68DFF8BCE1614A624FDC
:102190001268DEF800E03F6800FB01C100EB400080
:1021A00003EB4010031DCEF8003010603960938BB4
:1021B0005A4923F080031B041B0C9383938B0E70EE
:1021C0009BB2002043F02003042609219383D660AC
:1021D00020702960474801F017FA00283FF491ADBC
:1021E00007B0BDE8F08F4E4F4E4C3B78002B4AD1E4
:1021F00023681D684C4E35B90FE02B6828461B68D4
:1022000098476D684DB13378002BF6D02B683C4A67
:10221000DB68117828469847EFE7444D2B78002774
:102220003770002B4AD1354B1B7804937CE501F0C5
:1022300097FB00283FF4A9AD3D4B2A4603F5C0713A
:1022400023F8062C23F8042C23F8022C06338B42A7
:10225000F6D1384801F08AFB97E501F081FB0028B0
:102260003FF48DAD344B2A4603F5C07123F8062C9C
:1022700023F8042C23F8022C06339942F6D12F4878
:1022800001F074FB7BE523681D684DB12C4E31785D
:10229000284601F0F1F96D68002DF8D123681D681A
:1022A00000233B70A6E7164A1F4E013B1370FEF752
:1022B000B3FF244A01233370137058E7FEF7ACFFD5
:1022C0000E4B2F701B7804932EE50D4A0090013BB6
:1022D0001370154EFEF7A0FF1A4A009805900123CF
:1022E0003370137019E52046A64627462646254634
:1022F0007BE500BFF41400200CD5FF1F18D8FF1F8A
:1023000002C4FF1F00900340FCD4FF1F02D5FF1F33
:10231000F8D4FF1FEC140020E414002001D5FF1FA7
:1023200003C4FF1FE8D4FF1F01C4FF1F0DD5FF1F0B
:102330001AD5FF1F10D5FF1F9ED6FF1F94D6FF1F73
:1023400006D5FF1F00D5FF1F08150020334A34486B
:102350003449354BF0B5DFF824E1344E344F354D78
:10236000354C02F5E76CCEF800C002F6B80EC0F8A6
:1023700000E002F6281EC1F800E04FF4B47102F646
:10238000F800A2F82A19A2F828192C49186031601F
:102390002B482C4B2C4A026004211826397040F23D
:1023A0000C61218083B02E7003F54051002203F8A8
:1023B000032C03F8022C03F8012C03338B424FF05B
:1023C0000004F4D121482249224B234A07782348AC
:1023D0001B781278009701F5C0578761204FC161C3
:1023E000416107601F4E204DC6F884400121FF2740
:1023F000C17480F8207040212027418187811B49CA
:1024000085F8A8401A4800F045F801F00FFC194B78
:10241000194A0344136003B0F0BD00BFF892FF1FD8
:10242000F4D4FF1FECD4FF1FF0D4FF1FE8D4FF1F2C
:1024300005D5FF1F04D5FF1F02D5FF1F00DBFF1FBF
:10244000FCD4FF1F0BE4FF1F0082FF1F14C4FF1FFB
:1024500008E4FF1F28C4FF1F30C4FF1F28DAFF1F36
:10246000E47100000C1400204CDAFF1F68CAFF1F43
:102470000CDBFF1F00D3CEFEB4140020F8D4FF1FE6
:102480000123037083740A22D0F82808002303F084
:102490006FB900BFF0B4C0F82818154C9DF8107043
:1024A00080F82D284FF40066002240F2FF750121CC
:1024B00080F82C38C0F8144880F82E788660C56003
:1024C00080F81918C0F83028C2744260C0F81C287F
:1024D000C0F8202800F5036300F6F80443F8042F41
:1024E000A3424FF00001F9D18174F0BC704700BFE6
:1024F000249CFF1FC0F83018704700BF31299CBFD3
:1025000000EB8100C0F83428704700BF037803B1A6
:102510007047FFF7B5BF00BFF0B40023024690F844
:102520002E5803741C46013918461F4603E0AC427E
:1025300016D1147C013011F8013F1374AB4207D05F
:102540000B78002BF3D092F82D689E42F1D1EEE784
:10255000AC4207D00B781BB192F82D489C42E8D1D1
:10256000F0BC704717740B78002BE2D092F82D68FE
:102570009E42DED1DBE700BF002A22DD0B7803B3E9
:10258000F0B5013A00250A442F460C464FF0010EE3
:1025900090F82E689E420DD0012B09D02370A242E4
:1025A00005F1010503D04B5D0134002BF0D1F0BDE6
:1025B0002770F4E701354B5D312BEFD184F800E053
:1025C000EDE770472DE9F041064617469846F1B110
:1025D0000C463A4621463046FFF79EFF28B9207840
:1025E00001340028F5D1BDE8F08123788BB13A465B
:1025F00030462146FFF790FF225C231812B10022DB
:1026000022540133C8F800302046BDE8F081196833
:10261000DEE71846BDE8F08190F81838B3B1012B19
:1026200008BF022310B508BF80F8183890F8193891
:102630000CBF00F11401002104464BB9D0F81C086E
:1026400018B1012084F8190810BD10BD1846704754
:1026500000F5026390F82D28FFF7B4FFC4F81C08BA
:10266000EEE700BF10B50446FFF7D6FF10B984F8B7
:102670001A0810BD012384F8193884F81A38D4F8E0
:102680001C0803F04FFC00B210BD00BF08B5FFF7F7
:10269000E9FF003018BF012008BD00BF10B5044697
:1026A000FFF7BAFF10B984F81A0810BD012384F8A7
:1026B000193884F81A38D4F81C08BDE8104003F023
:1026C00035BC00BF10B50446FFF7A6FF38B10123A3
:1026D00084F8193884F81A38D4F81C0810BD84F826
:1026E0001A0810BD30B409781C78197090F82E586B
:1026F000A01AB0FA80F08D424FEA501003D19442F4
:1027000004BF00221A7030BC704700BF2DE9F043AF
:10271000044683B04FF00109A37C13B103B0BDE8B8
:10272000F083D4F8280803681B6998470028F5D07F
:10273000D4F8280803681B699847B0F5005F5DDB93
:102740004FF40052D4F81418D4F8280803F078F89D
:102750004FF4005700252E4604F1110814E0E1184B
:1027600001330A75E2686360934294F8183806D31F
:102770006660C4F81C68C4F8206884F81998012BB6
:1027800021D00135BD42C7D2D4F8143894F82E2890
:1027900013F805E084F8186843460DF10701204658
:1027A0008DF807E0FFF79EFF94F82C389DF807207E
:1027B00093426368D3D10028D1D1E2181075C3B910
:1027C00094F81838D4E72046FFF74CFFC0B2312800
:1027D000607009D894F81A3833B104EB8000D0F84F
:1027E00034380BB19847CCE7D4F83038002BF9D106
:1027F000C7E784F8189860740123B9E707460246D2
:10280000D4F81418D4F8280803F01AF8002FA1D12E
:1028100082E700BF2DE9F04F0D46017885B00446F0
:1028200039B9002600233046A374237005B0BDE8F3
:10283000F08FD0F8280894F82C181F4603681B68FE
:1028400092469847E37C002B60D1002DE9D0DFF859
:10285000D490D9F800300393DDF80C80002645466B
:1028600004F1110BC8EB0505AF42DBD9002ED9D11D
:10287000D4F82808D9F80020036802921B69029D49
:1028800098470028EED0D4F8280803685B69984779
:1028900004A95B4601F8090D94F82E2884F81868FD
:1028A0002046FFF71FFF94F82C389DF8072093422D
:1028B000636822D0E11801330A75E26863609342CD
:1028C0000ED294F81838012BCCD12046FFF7CAFE5F
:1028D0005045C7D194F81A68003618BF0126C1E7E1
:1028E00094F8183800224FF0010184F8191862603A
:1028F000C4F81C28C4F82028E5E70028DAD1E2183B
:10290000167543B994F818380022ECE7D4F8280873
:1029100002F01EFF99E74FF0010384F8183866743F
:102920000123F1E710150020002070470369D3F858
:102930003801D3F83431C01A704700BF0369D3F8A7
:102940003411D3F83821914208D2D3F83421511CE4
:102950001A44C3F8341192F8300070474FF0FF303A
:10296000704700BF0369D3F83411D3F8382191427E
:102970003DBFD3F834219B1893F830004FF0FF305F
:10298000704700BF704700BF0369D3F84422B2F517
:10299000817F03D90123037100207047D3F84422BB
:1029A00010B49C180132C3F8442284F83C11012071
:1029B00010BC704738B503690A4A026093F8482290
:1029C000022A044601D0204638BDD3F87452002DA7
:1029D000F9D0284602F00EFD2846082103F036F80B
:1029E000204638BD4C74000038B503690546D3F85D
:1029F0004402B0F5817F1AD81446D3F84422D3F8A4
:102A00004402C2F58172013203F59E73A24218445A
:102A100002D2012314462B71224600F0C1FE2A691E
:102A2000D2F844322344C2F84432204638BD012350
:102A30002B71002038BD00BF2DE9F0470446154634
:102A40001F469DF820609DF824808946002960D0AB
:102A5000012951D094F84A320023B8F1000F1ED159
:102A60001B0203F4E063002E4DD043F003033F4A02
:102A700002EBC50201205268136084F84A5284F8C0
:102A80004C62B9F1000F0ED0B9F1010F5FD094F88C
:102A90004B320022B8F1000F1CD0BDE8F0870020B7
:102AA000B9F1000FF0D1A7F11103012BEFD80225E6
:102AB00094F84B329F4250D0B8F1000F09D094F8EF
:102AC0004C3294F84B02002B14BF0221002101F07C
:102AD000A7F82A46120202F4E062BEB942F064028C
:102AE000224B03EBC70301205B681A6084F84B722A
:102AF00084F84C62BDE8F0871D2D0ED01A2DA9D1A7
:102B00004FF0060A0BE043F06403B0E742F0030223
:102B1000E6E7102A01D0132A9CD14FF0020A94F85C
:102B20004A329D421BD0B8F1000F09D094F84C32C4
:102B300094F84A02002B14BF0221002101F070F822
:102B400053461B0203F4E063002E8ED1DBE71E2FF9
:102B5000ADD01F2F9BD10625AAE72A469AE75346F8
:102B6000B8F1000F3FF47CAF99E700BF64AB000001
:102B7000F8B5C3681B789B0610D483680D46802186
:102B80001970C3681221197090F84932012B04465C
:102B900006D08AB980F848220120F8BD0020F8BD8F
:102BA0001A4675B9474B4FF080711960022A0FD051
:102BB000012084F84802F8BD531E012BF1D90120F1
:102BC000F8BD012DF2D13F4B4FF000711960EDE7D8
:102BD000D4F87462002E6AD03379102B30D0002DD7
:102BE0003CD132683849938B384F9BB243F008038D
:102BF00093833279531102F110009B0041F8207049
:102C000003F1604303F56143012102F01F0201FA61
:102C100002F231681A608B8B9BB243F002038B8304
:102C2000337903F1804303F5043396221D701A7043
:102C30000022022384F85E2284F848320120F8BD85
:102C4000304602F0D7FB3046082102F0FFFE002399
:102C50000120C4F8743284F84802F8BD012DE7D190
:102C600032681949938B1A4F9BB243F00803938340
:102C70003279531102F110009B0041F8207003F1EA
:102C8000604303F5614302F01F02954032681D6006
:102C9000938B9BB243F002039383337903F1804318
:102CA00003F504330021972219701A70C0E7082039
:102CB00002F0CAFE314607463E4602F037FBC4F832
:102CC000747289E700E100E000BEFF1F09350000D3
:102CD00015350000F0B5284EDFF8ACE0A6FB014347
:102CE000A6FB02429E09370275469609142400236A
:102CF000B7FBF6F604E00133372B1BD055F8044F31
:102D000022029642F7DA83BB14241C4A4568B1FBC1
:102D1000F4F491422B70C0F8504207D8184B8269E6
:102D2000A3FB0131C1F307511170F0BD8369042287
:102D30001A70F0BD002422464FF470274FF47065DE
:102D40004FF0360CB21AF71B002A87EAE776A6EB9B
:102D5000E776B8BF5242964202DD0A4AD35CD4E716
:102D6000084B2C4613F80C30CFE703F1FF3C5EF81C
:102D70002C502F02E6E700BFD34D6210FF6BDC0240
:102D8000819F5E1644750000687400002DE9F041D3
:102D900082B0044694469DF820609DF824209DF85A
:102DA00028009DF82CE09DF834700D46002947D18D
:102DB000DFF8D880D8F8001041F04001C8F80010C2
:102DC000002184F849C284F85512BCF1000F26D1C5
:102DD00063692021197012B994F84A22D2B210B94D
:102DE00094F84B02C0B200210346CDF800E00191F7
:102DF00020462946FFF720FE0C9A23492046FFF77C
:102E000069FF3A4629462046FFF7B2FE94F8493258
:102E100063B3A368C0221A7002B0BDE8F081616993
:102E2000CEB14FF0280C81F800C0B342216823D204
:102E30005B00DBB20B707600E369F6B21E70CAE786
:102E40000129BDD1DFF84480D8F8001041F080019D
:102E5000C8F80010B4E74FF0200C81F800C02168DA
:102E60005B00DBB20B70E3691E70B4E7A3688022DD
:102E70001A7002B0BDE8F0817600F6B20E705E0006
:102E8000E369F6B21E70A6E7006CDC0234800440F1
:102E9000F0B50446C068A76805783B78DBB203F05C
:102EA000200283B0EDB20AB313F0100F94F85E3233
:102EB00077D0022B00F0D28094F85E32032B00F022
:102EC000CD8094F85532082B00F0F28194F85532F9
:102ED000092B00F03B8294F85532012B00F0AE81B3
:102EE00080233B70E36802221A7058E002F0FF066C
:102EF000EA0624D405F0400202F0FF0E1ABB03F0EC
:102F0000100303F0FF02002B00F0848015F0010590
:102F100040F08C81D4F84022D4F844329A4207D24F
:102F2000D4F840325A1C2344C4F8402293F83C5150
:102F300023691D70A368D0221A70E0686FE0102327
:102F40000370680628D594F855320C2B00F00F81D9
:102F500005F0040505F0FF07002D64D0A3680021EB
:102F6000D0220B2084F85502C4F844121A7022694A
:102F7000D4F86C1213785B0884F8563209B188478C
:102F80002269D4F84432002B00F04D8194F83C6162
:102F900016700123C4F84032E36802221A7003B0AD
:102FA000F0BD022B00F0A68094F85E32032B00F0F7
:102FB000A180D4F83831D4F858220233934200F07B
:102FC0002D8194F85532012B00F02381D4F838314B
:102FD0000133934280F0F78094F85532012B00F0D2
:102FE000ED80D4F838312269591CC4F838112344D3
:102FF000127883F83020E36802221A7094F8553270
:10300000DBB2012BCBD194F85D22002AC7D184F822
:103010005D32C4E794F855320C2B00F06B8102232B
:10302000037003B0F0BDC34BC34A94F84B0284F85D
:103030005C72002914BF11461946032200F018FDE6
:10304000A3680C21C02284F85512C4F838711A7094
:1030500023691B785B0884F856329DE7D4F8742204
:1030600013689B8B190604D594F85E32022B00F08E
:10307000058194F85E32032B00F08780AF4B127904
:103080001968012393400B4289D0AD49AD4B0A70BA
:10309000D4F87412097919700022072384F85E228B
:1030A00084F85532D4F89432013304D0D4F89432F1
:1030B0000133C4F89432EF0611D5042384F8553255
:1030C000D4F88C32013304D0D4F88C320133C4F8F4
:1030D0008C32E268102100231170C4F84032A368DA
:1030E00080221A70E36802221A70D4F87032002B22
:1030F00039D154E7D4F874321A68928B120604D589
:1031000094F85E22022A00F0AD8094F85E22032A31
:1031100000F02E8189491A790968012393400B42F6
:103120003FF43DAF8649874B0A70D4F87422127978
:103130001A70A36880220020072184F85E0284F8B8
:1031400055121A70E36802221A70D4F894320133CF
:1031500004D0D4F894320133C4F89432D4F87032E5
:10316000002B3FF41CAF03B0BDE8F0401847D4F883
:103170006832002B3FF4ECAE0022C4F83421D4F8BE
:103180003801019198470199E2E603781B06FCD5C6
:103190006D4B12791A70002384F85E32D4F84432F1
:1031A0002169013BC4F84032D4F840322344022262
:1031B00093F83C310B70E3681A70F0E694F85D32D6
:1031C000002B3FF40EAFA3680021B02284F85D12FB
:1031D0001A70D4F838312269591CC4F838112344C4
:1031E000127883F8302094F85432012B00F0E880F4
:1031F000E36802221A7094F85532012B4AD0D4F8B1
:103200006432002284F85522002B3FF4F7AE984731
:10321000F4E694F85D32002B7FF4D8AEE8233B70DF
:10322000D4F85822D2E684F83C31B1E6C0233B7092
:103230002369E0681B7884F855E2F0E694F854328C
:10324000012B0CBF8023B0233B70E36802221A706D
:10325000D4F88032013381D0D4F880320133C4F8FD
:1032600080327BE737491B790B70A368E82119701E
:10327000E368032184F85E121A7090E631491279EE
:103280000A70A268F0211170E268032184F85E12CE
:10329000137084E6D4F88032013304D0D4F880323D
:1032A0000133C4F88032D4F87032002BAFD1A5E6D8
:1032B00005F0100303F0FF02002B00F088800023CC
:1032C0000421102284F85E3284F855120270A2683C
:1032D00080211170E268C4F8403202231370D4F8E0
:1032E0008C3201333FF43AAFD4F88C320133C4F856
:1032F0008C3233E70F4B104D84F85C22002914BF49
:1033000029461946032294F84B0200F0B1FB2369C9
:103310001B78D4F83821B2F5817FDBB207D8D4F816
:103320003821A1180132C4F8382181F83030E06822
:1033300075E600BF79350000853500002C8000401F
:103340001E8000401F8000401C800040EE0656D5C5
:103350000422102384F855220370A36880221A7077
:10336000E36802221A70D4F88C320133BCD1F5E63E
:10337000634A1B791370A3680021B02284F85E129F
:103380001A70D4F858322269013BC4F83831D4F8A5
:103390003831591CC4F838112344127883F830208E
:1033A00094F85432012B6ED0E36802221A70D4F8DC
:1033B0006432002284F85522002B7FF4D4AEEEE56F
:1033C0002023013BFDD1A36880221A7010E715F07D
:1033D000010528D084F85E22D4F84032002B59D160
:1033E000022384F85532D4F88432013304D0D4F85F
:1033F00084320133C4F8843280233B7072E6E907DB
:103400002CD50223802284F855323A70E26813707A
:10341000D4F8843201333FF4A1AED4F884320133BE
:10342000C4F884329AE6D4F840320133C4F840320A
:10343000D4F8442293423AD394F8543284F8555243
:10344000012B0CBF8023B0233B70E36802221A706B
:10345000D4F86032002B7FF486AEA0E594F85E329B
:10346000012B2CD0D4F85832012B4FF00A020CBF9C
:10347000E823E02384F855223B702269E368127840
:1034800002221A708BE52023013BFDD1A368802224
:103490001A7089E7032384F85532D4F8883201334F
:1034A000AAD0D4F888320133C4F88832A4E794F85B
:1034B0005E32012B12D0D4F84032216976E6022325
:1034C000E12284F85E323A70D4F874120D4A097918
:1034D00011702169E2680978137060E50223F12216
:1034E00084F85E323A70D4F87412064A0979117081
:1034F000226994F83D111170E26813704FE500BF26
:103500001C8000401B80004000210148FFF7C0BC28
:103510003CC4FF1F01210148FFF7BABCD4C6FF1FFE
:10352000C3681B7803F020035BB190F85C32013371
:10353000DBB2012B80F85C3217D990F84B0200F017
:1035400013BB70B503F0FF05044680F8555290F8A0
:103550004B0200F009FBD4F868325BB1C4F8345177
:10356000D4F83801BDE87040184790F84932012B73
:10357000E3D1704770BD00BF00210148FFF7D0BF05
:103580003CC4FF1F01210148FFF7CABFD4C6FF1F7B
:103590002DE9F843134BDFF85C90DFF85C80124EA6
:1035A000124D1E6000244FF47A774A4641461C7142
:1035B0001C739F6018465C731D6102F0ADFC0C4BE0
:1035C0004FF0010E05F526751C711C7383F80DE094
:1035D0004A46414618461D619F601E60BDE8F8439B
:1035E00002F09ABCCC1400204C7400003CC4FF1FB5
:1035F000B8140020FCC3FF1FB5290000002380E899
:103600000A008360704700BF82680068101AB0FA31
:1036100080F04009704700BF8068B0FA80F0400930
:10362000704700BF4168836802680B4493FBF2F067
:1036300002FB1030704700BF4368826810B4046812
:103640000133013A93FBF4F104FB113343608260D0
:1036500010BC704783680268934202D001338360D4
:1036600070474268013292FBF3F103FB1123436080
:10367000704700BF4068704711F0FD0F07BF4289D7
:103680008389828943890172C2810382704700BFA6
:103690008174704770B41B4E8A683368002BB6BFC4
:1036A00000235C001C4680B2145BB8BF33608442C8
:1036B00013D015D24D88AB420DDA02EB4302591CF0
:1036C00003E032F8024F844218D08D420B4601F1DC
:1036D0000101F6D135604FF0FF33184670BC7047DA
:1036E00002EB430203E032F8021D814206D013F1DF
:1036F000FF33F8D233604FF0FF33EEE73360184604
:1037000070BC7047E014002070B55C78944201D81A
:10371000002070BD0E46194615461C46FFF7BAFF3D
:103720000028F5DB6378E26800FB03208021435D1D
:1037300031410B4214BF0120002070BD014B53F8F2
:10374000200070474CAB000010B5044601F052FE5B
:10375000204610BD38B50C4D0C4C0D482A4621466C
:1037600002F0DAFB2A4621460A4802F0D5FB2A4637
:103770002146094802F0D0FB2A4621460748BDE809
:10378000384002F0C9BB00BFFCC3FF1F493700002F
:103790000015002008150020EC140020E41400207F
:1037A000844641EA000313F003036DD1403A41D34C
:1037B00051F8043B40F8043B51F8043B40F8043B0B
:1037C00051F8043B40F8043B51F8043B40F8043BFB
:1037D00051F8043B40F8043B51F8043B40F8043BEB
:1037E00051F8043B40F8043B51F8043B40F8043BDB
:1037F00051F8043B40F8043B51F8043B40F8043BCB
:1038000051F8043B40F8043B51F8043B40F8043BBA
:1038100051F8043B40F8043B51F8043B40F8043BAA
:1038200051F8043B40F8043B51F8043B40F8043B9A
:10383000403ABDD2303211D351F8043B40F8043B3A
:1038400051F8043B40F8043B51F8043B40F8043B7A
:1038500051F8043B40F8043B103AEDD20C3205D34A
:1038600051F8043B40F8043B043AF9D2043208D042
:10387000D2071CBF11F8013B00F8013B01D30B88B4
:1038800003806046704700BF082A13D38B078DD092
:1038900010F003038AD0C3F10403D21ADB071CBF64
:1038A00011F8013B00F8013B80D331F8023B20F8CE
:1038B000023B7BE7043AD9D3013A11F8013B00F807
:1038C000013BF9D20B7803704B7843708B7883708F
:1038D0006046704708B5104C08E0236859050DD4C0
:1038E00023681A050FD42368DB0411D42368580316
:1038F000F3D500F0E3FE23685905F1D500F0A0FDF3
:1039000023681A05EFD502F0BFF92368DB04EDD573
:1039100002F050FAEAE700BF3480044008B5FFF730
:10392000D9FF00BF014B10221A80704700200540CC
:10393000704700BF094908B50B6830B16A461844A2
:10394000A2F58052904202D20860184608BD02F0EB
:10395000F7FA0C2303604FF0FF3008BD6CC9FF1F5E
:103960000078B0FA80F04009704700BF012303706F
:10397000704700BFEFF3138070B9EFF310836BB99A
:10398000EFF305825AB94FF48070EFF311832BB136
:10399000984228BF184670474FF0FF3070470F2AF3
:1039A00001D81846F1E7014BD05CEEE7F0E300E008
:1039B000704700BF10B40F4B53F8302092F880428C
:1039C0002CB1012369B182F8803010BC704703EB41
:1039D000C0035B681A6841B922F002021A6010BC89
:1039E000704782F8003110BC704742F003021A6041
:1039F00010BC704764AB00001C4A02EBC0030129F5
:103A00005B6811D004291BD052F83000002280F8E6
:103A1000802229B1022920D0032922D01A607047C0
:103A20004FF480721A60704752F830004FF4A2725F
:103A300080F880121A601A6822F020021A6070471B
:103A400052F830104FF4A272012081F880021A60FF
:103A50001A6842F020021A60704740F203121A609E
:103A600070474FF481721A60704700BF64AB00006A
:103A7000212817D8F8B5042A13D8DFE802F0494CFA
:103A80004F1446002C4872B6236823F4702343F089
:103A90008072C4F384011643236040F821502660ED
:103AA00062B6F8BD70474FF41026244B03EBC003F9
:103AB0000D465C68216811F4E06134D0204B214A46
:103AC0002149C3F89C2104F140422048C3F8A411C5
:103AD000A2F592211E4FC3F8A0017C291D48C3F80E
:103AE000A871C3F8AC01CDD9A2F594237C2B18D9C9
:103AF000A2F596237C2B19D9A2F598237C2B17D9F4
:103B0000A2F59A227C2A15D9F8BD4FF43026CCE7CD
:103B10004FF40026C9E74FF44026C6E74FF42026AD
:103B2000C3E70D48AFE7FFF767FFC7E70B48AAE712
:103B30000B48A8E70B48A6E770C9FF1F64AB00005D
:103B400000BEFF1FD1C3FF1F79C3FF1FA5C3FF1F07
:103B50004DC3FF1F21C3FF1FA8C9FF1FF8C9FF1FC7
:103B600028CAFF1F48CAFF1F1A4B03EBC00010B43E
:103B7000426802F14043A3F592217C2905D9A3F5BF
:103B800094217C2913D8144900E0144972B61368B3
:103B9000134C23F08773C2F3840023F4803343F083
:103BA0008073136041F8204062B610BC7047A3F5E3
:103BB00096217C2909D9A3F598217C2907D9A3F559
:103BC0009A237C2BF1D80749E0E70749DEE707494C
:103BD000DCE700BF64AB0000A8C9FF1F70C9FF1F6E
:103BE000B139000048CAFF1FF8C9FF1F28CAFF1FCC
:103BF00030B4054B054D064C002210211A602A6096
:103C00002060196030BC704714D0034004D00340DA
:103C100000D00340212801D8FFF7CCBE704700BF79
:103C2000212801D8FFF7E8BE704700BF72B60C49E3
:103C30000C4B0D4A1B680868126862B6520102D527
:103C4000322B88BF01300949C3F5BB334FF47A7278
:103C5000FF33A1FB031302FB00F000EB931070474E
:103C60001015002018E000E004ED00E0ABAAAAAABD
:103C70002DE9F843054672B6204F214B214A1B68B7
:103C80003C68126862B6520102D5322B88BF0134FB
:103C900095B3C3F5BB331C4EDFF86490DFF8648046
:103CA000FF334FF47A72A6FB031302FB04F404EB18
:103CB000931472B6D9F800103A68D8F800E062B6EA
:103CC000C1F5BB33FF33A6FB03031EF0806FC4EBCB
:103CD00093134FF47A7002D0322988BF013200FB6F
:103CE0000233B3F57A7F04D3013D05D004F57A742D
:103CF000DFE701F0C3FEDCE7BDE8F8831015002024
:103D000018E000E004ED00E0ABAAAAAAF8B52D4B3C
:103D10002D49DFF8D0E0DFF8D0C02C4E2C4D2D4CD3
:103D20002D4A2E4F4FF4000018604FF0807018603D
:103D30004FF0007018604FF0806018604FF0006026
:103D400018600020086028234BF6FF71CCF80010A3
:103D5000CEF80030336013602B6023603B60B362A9
:103D60009362092245F8242CC4F8D80F05F57F6525
:103D7000C7F8D41F07F5FF2707F5FA67C6F8F83F1D
:103D80002B6006F5FF26C4F8D42F05F5FD2504F5B4
:103D9000FF24386006F2F4761148316005F5FF65BE
:103DA00004F5FD642B602360026001F0B5FE322053
:103DB000FFF75EFF01F0AEF84FF4AF70BDE8F840DA
:103DC000FFF756BF08E100E0048003401480034081
:103DD000248003402C8003401C8003403480034037
:103DE00000800B400C800340088003402DE9F84F11
:103DF000214B1B6807460BB101221A70DFF888902F
:103E00001E4D99F80040DFF884801D4E01343F2C90
:103E10008ABF4FF0000A5FFA84FA5446AB462B780B
:103E2000A34216D1FFF7A6FD40281FDC33791B06FD
:103E3000F5D59BF8003001333F2B86BF0022134697
:103E4000DAB218F80330DBB2F3712A702B78A34290
:103E5000E8D00C490A4BFFB208F804700120BC22DC
:103E6000087089F800A0DA70BDE8F88FFF28D6DD69
:103E700001F004FED3E700BFA4150020A115002027
:103E800000A00640A0150020A81500201C15002049
:103E90002B4A2C491368F0B543F4806313600A7809
:103EA000294F2A4E2A4D2B4C2B4900233B7033704F
:103EB0002B7023700B70002A3DD0152A21D0274B80
:103EC0001B78012B25D0052B30D01F2827D80020A8
:103ED00002460125224B234C1A7023495D700422AF
:103EE0004FF0020E88273C26402598729A704FF4B6
:103EF000005083F813E05A751F74DE702570086057
:103F0000F0BD1A4B40F213321A60144B1B78012B90
:103F1000D9D1174B4FF451721F281A60D7D9C0F36B
:103F20004432C0F3471500F01F00D3E7114B4FF4A4
:103F300051721A60C9E7104B40F213321A60BEE7A3
:103F4000348004405C15002018150020191500204D
:103F5000A8150020A1150020A015002050CAFF1FA1
:103F600000A006402DE400E004E100E018C0044099
:103F700044A004401CC0044040A00440144B144919
:103F80009B7803F0EC0200F003031343420700F0B8
:103F90000F0248BF43F01003042A8B7013D00C4B60
:103FA0000B4A5B79C10603F0EF0348BF43F01003EF
:103FB00053719379820603F0EF03054A48BF43F03B
:103FC0001003937170478B7943F040038B71E6E7E0
:103FD00000A00640214B1B685B053ED510B5204C68
:103FE000237823B101F04AFD2378002BFAD11D4834
:103FF0001D4A1E4B4FF4005400210460D1701B7801
:10400000E3B1152B03D11A4B40F203121A60194B7E
:104010001B7803F07F03012B1AD0052B03D1164B1D
:1040200040F203121A60154B154816491A6800230E
:1040300003700B700AB10123137010BD124B40F2D4
:1040400003121A600B4B1B7803F07F03012BE4D1A2
:104050000E4B40F203121A60E5E7704734800440CB
:10406000A015002084E100E000A006405C150020BF
:1040700018C0044050CAFF1F1CC004401415002083
:10408000181500201915002040A0044044A0044049
:104090000A4A38B50546137803F0FF04002BFAD11D
:1040A00001212846FFF7BCFD21462846FFF7B2FD57
:1040B000034A044B52F835201A6038BDA015002081
:1040C00064AB0000A415002009B140F08000174A3D
:1040D0001378984216D010B4154C246864050FD597
:1040E00003F07F03012B1CD0052B11D0002900F019
:1040F0007F0114BF6023442301290DD0052902D07C
:10410000107010BC70470B4943F440730B60F7E725
:10411000084B00241C60E9E7074943F440730B6037
:10412000EEE7054B00241C60E0E700BF50CAFF1F0C
:10413000348004401CC0044044A00440104B1A7852
:1041400082420AD00F490968490505D5AAB1152A46
:1041500009D068B1152801D0187070470A4A40F29A
:1041600013311160F8E7084A002111600028F1D1ED
:10417000064A40F213311160EEE704490A60E8E7AD
:104180005C1500203480044018C0044040A0044066
:104190000D4B1B6813F4806305D0212805D90B4B08
:1041A00000201860704718467047094B10B5074C3F
:1041B00053F8303023600121FFF732FD23680022DD
:1041C0001A70012010BD00BF348004401415002077
:1041D00064AB00000F4B1B6813F4806308D01228F7
:1041E00008D0142811D00C4A537B03F0FE035373FC
:1041F00000207047094B40F202321A60064A537B96
:1042000043F00103537301207047054B40F2023223
:104210001A60F3E73480044000A006400CA004407C
:1042200014C00440034B1B685B0501D5FFF7DEBDDE
:10423000704700BF348004402DE9F84F294B1B68BC
:104240005A0548D5284B1B6805460BB101221A7048
:1042500005EB010A554540D2DFF89C80234CDFF87E
:104260009C90234F0AE015F8012B09F80B20214AF6
:104270000123AA45137088F800602ED098F800300A
:10428000227803F1010BBBF13F0F86BF0026B34636
:104290005FFA8BF69345E6D1BC22FA7005E03A79D5
:1042A00013060BD422789345DDD1FFF763FB40283A
:1042B000F5DDFF28F6DD01F0E1FBF3E722780132BE
:1042C0003F2A86BF00210A46D1B219F80220D2B295
:1042D000FA712170E6E7BDE8F88F054BBC22DA7071
:1042E000BDE8F88F34800440A4150020A1150020FB
:1042F00000A00640A0150020A81500201C150020D5
:1043000010B5044C237823B101F0B8FB2378002BBF
:10431000FAD110BDA0150020064A074B1B78107873
:10432000DBB2C0B283422CBF3F3000F1FF30C01A75
:10433000704700BFA1150020A8150020054A064BB4
:1043400010781B78C0B2DBB2984238BF4030C01A38
:10435000704700BF181500201915002030B4154B08
:10436000154C1A782378D2B2DBB29A421ED00133B0
:104370003F2B0ED91149124B087819680023C0B29F
:10438000237021B1D31A1A2B01DC00230B7030BC2F
:1043900070470A480A49C05C0968DDB2C0B225709E
:1043A0000029F4D09A4238BF4032EBE74FF0FF309B
:1043B000EDE700BF1815002019150020601500203A
:1043C00014150020084A094B12781B78DBB29A4278
:1043D00007D00133402B28BF0023054AD05CC0B270
:1043E00070474FF0FF307047181500201915002056
:1043F000601500200D4B1B685B0516D530B40C4BC7
:104400000C4CDA780C480D4902F0CB024025DA70EA
:104410005D74DA7842F03402DA7023780268DBB235
:104420000B700AB10023137030BC70473480044015
:1044300000A00640191500201415002018150020B2
:10444000F0B4384B1A7912F0300F2CD072B6997D37
:1044500001F0FF0200293DD062B6334F334938786E
:104460000D78334E1C46C0B2EDB2431C402BE179AF
:1044700028BF0023AB4202F1FF32C9B21CBFF15486
:10448000184612F0FF02F0D12A4B1B68C2B23A70F4
:104490004BB1A84236BFC5F14005401B4019272843
:1044A000C4BF01221A701F49CA78D2B2150616D4A9
:1044B00052060DD51B4B1B795B0609D51E4B1F49B8
:1044C0001B6800220A7003B11A70164B3C22DA7086
:1044D000F0BC70474022D9795A7462B6E3E70B7991
:1044E0001C06E5D5164B174E1C783378E4B2DBB2C8
:1044F0009C420ED0144D01E0A3420AD00133402B60
:1045000028BF00230879E85CC0B2C871087D07287D
:10451000F2D9DBB2034933700B79180644BF7C2310
:10452000CB70C5E700A00640181500201915002023
:104530006015002014150020A4150020A0150020EF
:10454000A8150020A11500201C150020431E032BD8
:1045500014D872B60A4951F8230068B170B4094CF6
:10456000058834F81320466841F82360521B24F86C
:10457000132062B670BC704762B670470020704767
:1045800004160020F4170020013803280BD872B657
:10459000074B53F8203043B100205B680130002BFB
:1045A000FBD162B67047002070471846F9E700BF9C
:1045B00058160020F0B472B61A491B4E012311F8A8
:1045C000014B194F9A00240742F0010505D556F812
:1045D000324064B156F83520BAB10133052BEED123
:1045E00062B6124B00221A70F0BC00F00FBD0F4CE7
:1045F0000F4D217847F8325007EB431308304A1E1D
:104600005860227062B6F0BC70470849094B0A78BE
:1046100047F8353007EBC5030830013A58600A7097
:1046200062B6F0E700AD00000080FF1F8116002099
:1046300088004000C8004000431E032B1DD81B4AC1
:10464000400140F0100030B4104472B6184CE25CE7
:10465000032A1BD8DFE802F00212151703220D8887
:10466000E25410F0080F14BFC823882343EA05431F
:1046700008310360416062B630BC704708300222E6
:10468000EDE70522EBE708300422E8E7094A52F893
:10469000230038B1084A52F82300416042F8231041
:1046A00062B6E9E742F82310034AF7E70080FF1FEC
:1046B0009016002058160020681600202DE9F04FB3
:1046C000DFF804A3DFF804B387B044E0A94F4FEA52
:1046D000930807EBC809013ED9F8042003F008034A
:1046E000F6B2A2F1080003F0FF04002B40F0FE80B8
:1046F00057F838301B0C99B222F8081C002B00F038
:10470000EC809D4B22F8064C42F8044C53F82620CE
:10471000002A00F02B82994D55F826305860984CAD
:1047200045F8260034F81630194424F8161000F025
:104730004DFC002800F01382924A934B19F0080FA9
:1047400000F1080018BF1346C9F8040047F83830D4
:1047500008238AF800309AF80040E4B260071AD5BE
:104760008A4B1B78A3B18A490A7802F0FF0322B171
:10477000013BDBB20B7003B900BE86490A7802F038
:10478000FF032AB1013BDBB20B70002B00F0BD81AF
:1047900004238AF8003004F0080303F0FF02002B22
:1047A00000F0C8809BF80030DBB21E098ED19C0857
:1047B000704F57F8342007EBC401C2F38302013A6B
:1047C00049680C2A00F28580DFE802F0797983835A
:1047D0008383838342838383070008686E4B6F4D16
:1047E0000193684B4A686E4E47F8343081B240F20C
:1047F0008164694B6A60286000220120A1421A602E
:104800003A61BA61307000F2E380B1F5D06F80F0A8
:104810002782B1F5817F00F0E08100F2C381802919
:1048200000F03682822940F0DE81A9885D4B01F0DC
:104830007F01042900F2D8815B4C89000B4422706F
:1048400062701A78930740F122832070022023E2DD
:10485000514B01931A683AB3544B514E544918883E
:1048600034780D784028864645F0020828BF4FF07E
:10487000400E002C84F001043470CEEB00000CBF1D
:104880008824C82407EBC80680B285F0010544EAF5
:104890000E447260188047F8384072440D7000284A
:1048A00000F0B780019B1A603C4B1A88B2F5A06FEC
:1048B0000FD100219A7859703E4B1A7009E0374A9F
:1048C000108842F22102904200F0A8802D4A47F859
:1048D0003420394A012313703AE72A4A2A4B19F047
:1048E000080F18BF134647F8383031E700F08EFB49
:1048F000324A334952F82630002B00F03B81586889
:104900008C5D42F8260003F10802C9F80420032C4C
:1049100005D8DFE804F02C02292602228A551A88DD
:1049200019F0080F0CBF8823C82343EA024347F855
:1049300038300DE7E00700F1EB80210600F1288117
:10494000A20706D51F4A204913780220DBB2137054
:104950000870E30602D51C4B10221A7007B0BDE8A0
:10496000F08F04228A55DAE705228A55D7E7032219
:104970008A55D4E70080FF1F04160020B0150020E0
:10498000F4170020C8004000880040008C1600206A
:104990001516002094160020AC1500207816002073
:1049A00014160020C020074084160020C0150020E7
:1049B00080160020982007409420074058160020B9
:1049C0009016002088200740802007409020074054
:1049D00042F22104A14200F0948043D8B1F5086F5F
:1049E00000F0A881B1F5106F40F0FD80B84AB94CD5
:1049F000A978117004F1800503E00834AC4200F09E
:104A00009E81236A1906F8D5606A083800F0FEFA1C
:104A1000F3E7BEF1400F18BF002243E7AE4ACD1DB9
:104A200011F8013B02F8013FA942F9D1AB4A1268E3
:104A3000862A00F01181AA49AA4E0A78307882F0BD
:104A40000105002842F002020D700CBF8821C82128
:104A500047F8321007EBC20280F0010000213070ED
:104A6000516033E742F22124A14240F0FE81DFF899
:104A7000BCC29D4B9D49AC78DCF800501D6081465E
:104A80000C700020029080468446044694490D78BC
:104A900045F0020E07EBCE03B9F1000F5C600CBFCE
:104AA0008824C82444EA080385F0010447F83E300E
:104AB00032700C70DFF81CE28A4BDFF82482002889
:104AC00040F09880BCF1400F1BD144F0020407EB8A
:104AD000C403029FDFF8FCE15F60002A40F09F8082
:104AE000020442F0880207444EF8342086F8009011
:104AF0000D703B46402804D100207D4A019910806A
:104B00000B607C4A01231370E3E600F0EBFB3FE609
:104B1000704B784872491A614FF0020E80F800E03D
:104B2000754F0A70754919609960754E754D764CD0
:104B30009A610D213970FF213170DFF8F4E129709D
:104B40002270724D724A8EF800109F27012406F8D9
:104B5000047C5D600470DA6007B0BDE8F08F6D4AD8
:104B600047F83800137801331370F1E543F8260055
:104B7000694DD4E58B5D032B67D801A252F823F071
:104B80005147000051470000D54B0000CF4B0000BB
:104B900059495C4B80220D2008701A70A2077FF5DE
:104BA000D8AECFE640F20232914240F05681A98859
:104BB00001F07F01042916D86A88A2B94E4C8900F9
:104BC0000C448146217841F00201217059E701230C
:104BD0008B55BDE500238B55BAE5A98801F07F010F
:104BE000042940F24781444B0F221A70414A0123A5
:104BF00013706EE640287FF668AF44F002040EEBB7
:104C0000C401029E4E60AAB1444A83F80090334624
:104C1000403888F8005040334EF834206DE70204E5
:104C2000029B86F8009042F0C8020D7003444EF8D3
:104C300034205FE783F80090029B304A88F80050E8
:104C4000403840334EF8342057E719F0080F0CBFB6
:104C5000022303238B557BE5314A0F211170EAE6CD
:104C6000304A5468002CBED06888B5F804E003E0F0
:104C70000C325468002CB6D013888342F8D1538884
:104C80007345F5D1000A03280CBF2078108903E092
:104C9000254C022022706270EA88824280F00C81EA
:104CA0000F490D78402A45F0020E944607EBCE00DE
:104CB00028BF4FF0400C04EB0C0344600293CCEB94
:104CC00002004FEA0C484FF001090022C824E9E62F
:104CD0008C1600200080FF1FFB170020FC1700200F
:104CE000801600201416002004180020A4160020AE
:104CF000C015002094200740C020074088004000D5
:104D0000882007408020074098200740C4150020D5
:104D10001816002081160020B0150020C8004000A1
:104D20001516002004AD0000841600201015002088
:104D30008C200740684A694C12782270ACE76849B9
:104D4000684B694A02916949694C6A4D039405961A
:104D50004FF0000988461C4616460495206828B185
:104D6000456800F053F92846002DF9D1002323604F
:104D7000049B30681A46002342F8293028B1456860
:104D800000F044F92846002DF9D100223260029A41
:104D900098F800301146002241F8042B039A029142
:104DA000023B4FF0000122F81910032B07D8DFE86F
:104DB00003F0340234024FF0010388F8003009F1A7
:104DC0000109B9F1040F04F1040406F1040608F125
:104DD0000108C3D1484B059EDFF83091DFF83081E0
:104DE00000211970012518F8013B09F8043B1A0746
:104DF00018D4AC0044F0020244F00304002347F846
:104E0000323047F834303D4B994505F10105EAD180
:104E100096F8009089F0010233E64FF0000388F81D
:104E20000030CCE700F0D2F8AC0007EB451300F1FE
:104E30000802002837D05A60314B47F8343000F070
:104E4000C5F844F0010307EBC30200F1080100B309
:104E500051602C4A47F83320CCE7B1F5A06F7FF4BE
:104E6000C2AE00224FF001090BE642F2213291421C
:104E7000F7D0B8E66A88002A7FF4B5AE224C8900E4
:104E80000C448146217821F002012170F9E50220CD
:104E900002E7194B44F001021B7847F83200164A2A
:104EA00001331370A6E7144B134A1B78AC0001338F
:104EB00047F834001370C2E74028844628BF4FF0FB
:104EC000400C04EB0C03CCEB00004FEA0C480293BF
:104ED00000224FF00109D9E58C160020841600202D
:104EE0006816002004160020581600209016002096
:104EF000F4170020B015002081160020D4200740B0
:104F000088004000C8004000C0200740C42007407F
:104F100000AD00002DE9F843204C00F0B7FF00225F
:104F200004F1880023461A605A60083383424FF028
:104F30000001F8D11A4A1B4F13681B4D1B481C4E29
:104F4000DFF87880DFF878C0DFF87890DFF878E075
:104F500043F480231360C4F307233B70C4F3074377
:104F60002B70240EFF2302F528320470114D88F8AF
:104F7000003011488CF80030D4323370012389F8A6
:104F8000003070268EF800104FF40074102107F8DE
:104F9000183C2E7004601170BDE8F8830080FF1F7C
:104FA000348004409C200740B0200740B4200740D4
:104FB0001020074049E400E008E100E080200740BD
:104FC00088200740942007400021074072B60D4812
:104FD0000268B2FA82F30B2B10DC4FF00041D9408B
:104FE00022EA0102026062B6074803EBC303DB005A
:104FF000C2180021C15010465160704762B60020AF
:10500000704700BF54CAFF1FBCBFFF1F0D4B0E4AA5
:10501000C31AA2FB03231B090B2B0CD80B4A1278D3
:1050200052B972B60A484FF00041026821FA03F300
:105030001A43026062B67047064A1278002AF0D01E
:10504000FFF7B8BABCBFFF1F398EE33881160020C6
:1050500054CAFF1F8C16002038B50F4D286878B150
:1050600043880288C118013393420C7A02D24380EC
:10507000204638BDFFF7CAFF002320462B6038BD0D
:10508000064B1B782BB10320FFF760FA286000283D
:10509000E6D14FF0FF3038BDA01600208C1600205E
:1050A00010B5094C206818B143881844007A10BD27
:1050B000064B1B782BB10320FFF748FA206000282D
:1050C000F2D14FF0FF3010BDA01600208C1600204A
:1050D000044B054A1B6890881BB11A885B88D31A59
:1050E00018447047A0160020F41700200B4B1B78C3
:1050F0009BB110B50A4C206848B1FFF787FF002329
:1051000003202360FFF722FA30B1FFF77FFF03206F
:10511000FFF71CFA0028F8D110BD70478C1600204C
:10512000A01600202DE9F04FDFF8F89083B001229F
:1051300089F80020019169B3DFF8EC80364F019EB9
:105140008346D8F80000B0B3344D4488C4F1400120
:10515000B14228BF314604EB010E00221FFA8EFE39
:105160002A70761AA0F802E000F1080251B1013C61
:10517000224459441BF8014B02F8014F8B45F9D1E9
:10518000B0F802E0BEF13F0F0BD8254A052111709F
:10519000002ED6D10198002389F8003003B0BDE875
:1051A000F08F4022028001460420FFF745FA0022DA
:1051B000C8F80020E9E73A782AB3184D4AF2F924F2
:1051C0004FF0010A07E0013C16D02A78A2B900F09E
:1051D00055FC3A78BAB10420FFF7D6F90728F2D87F
:1051E00089F800A0FFF7F2FEC8F800000028ACD153
:1051F0000C4B013C1870E8D101234FF0FF302B70AD
:1052000003B0BDE8F08F00234FF0FF3089F8003085
:1052100003B0BDE8F08F00BF8C1600209C16002064
:1052200094160020951600209816002000B583B033
:1052300002AB012103F8010D1846FFF773FF03B01D
:105240005DF804FB38B50E4D0E4C28680123237021
:1052500028B1408800232370C0F1400038BD0A4BBC
:105260001B7813B90020207038BD0420FFF78CF99B
:105270000728F7D8FFF7AAFE28600028E9D1F1E750
:1052800098160020951600208C160020F8B5114BBA
:105290001B788BB1104E114D346801272F7064B10B
:1052A0000F4A638800271770214623800420FFF7E8
:1052B000C3F9376000232B70F8BDFFF787FE084B5A
:1052C00028B1014604201C70FFF7B6F9F2E71F7001
:1052D000F0E700BF8C1600209816002095160020DD
:1052E0009416002038B50E4B1B7873B90D4C21680D
:1052F00061B103F0FF054B880B800420FFF79CF998
:10530000256038BD084B01221A7038BDFFF75EFEDC
:105310000028F7D00146BDE838400420FFF78CB9DB
:10532000951600209816002094160020F0B572B64D
:1053300099B902688AB103790F2B0ED8274C2188BE
:1053400041FA03F5ED070AD503F1007303F5906305
:10535000B2EB431F03D162B6F0BD204C218800237D
:1053600041FA03F212F0010207D00133102BF7D1FA
:1053700062B6002203710260F0BD01259D40294301
:10538000218062B6164E174D174FDFF864E0D9B290
:105390000171346844F0020434602C6844F0020463
:1053A0002C60A6F580268224A5F5802503F10073E4
:1053B0003C6003F59063223E243D0C4C8EF80010B7
:1053C0005B0131702970217003601A605A609A6025
:1053D000DA601A615A619A61DA61F0BDA61600209E
:1053E000408004403C800440008000401F8000401A
:1053F0001A80004003790F2B11D8094A10B413709A
:1054000072B6084904790A880123A34022EA0303FB
:105410000B8062B61022002310BC0271036070473B
:105420001A800040A616002010B4EFF3108272B666
:10543000437F33B9017F012907D003290FD001230E
:10544000437702B962B610BC7047124C2168A1B113
:10545000114943610B68836108605861EFE70F4CA5
:10546000216881B10E4943610B688361086058610E
:105470000C4B4FF080511960E1E7074B41618161AE
:1054800020601860DBE7064B416181612060186095
:10549000EEE700BFB8160020B4160020A8160020C2
:1054A000AC16002004ED00E010B4047F4160022C33
:1054B000C26002D010BCFFF7B7BF836810BC1847AA
:1054C00070B5EFF3108272B60C4C206880B10C4EB0
:1054D00000254369236073B19D6102B962B64577C7
:1054E00083689847EFF3108272B620680028F0D1E5
:1054F00002B962B670BD3360EFE700BFA8160020A6
:10550000AC160020FFF7DCBF184A30B41468002C3A
:1055100027D0036821688B420ED2CB1A0021846009
:10552000C1602360E06010600223037530BC7047E7
:1055300011688B42144608D3A2685B1A0360002AE4
:10554000F6D18260C460A060EEE7D268C260846079
:10555000E060C568CB1A0222A8602360027530BCE7
:1055600070478460C4601060DEE700BFB0160020A2
:10557000F8B5224E34682CB32368002B3AD1204F63
:105580001D4604E03468ECB12368002B32D1A368D7
:1055900003B1DD6020693360036825751B68BB4279
:1055A00021D1037F4560022BC46020D0FFF73CFF70
:1055B0006368002BE6D023602046FFF7A5FF346820
:1055C000002CE1D1EFF3108372B60E4A002110686F
:1055D000116003B962B628B18468FFF795FF2046D1
:1055E0000028F9D1F8BD224600219847E0E78368FA
:1055F0009847DDE7013B2360E4E700BFB0160020D9
:10560000A9540000C0160020024A13680133136039
:10561000FFF7AEBF101500200368C9B21B6818471A
:105620000368C9B21B6818470368C9B21B681847EA
:105630000368C9B21B68184708B50846FEF7F2FDB3
:10564000012008BD08B50846FEF7ECFD012008BDA5
:1056500038B508460D4601F0B3FA0446014628461F
:10566000FEF7EAFD204638BD10B50846144611463F
:10567000FEF7E2FD204610BDFEF7BCBE08B50846A9
:10568000FEF7A8FD003018BF012008BD08B5084688
:10569000FEF77EFD003018BF012008BD0846114608
:1056A000FEF712BD0846FEF749BD00BF0846FEF7EB
:1056B000EFBC00BFFEF78EBC4B0803F1376000F56E
:1056C000D830B0FBF1F0FEF7E3BB00BF10B54B08DC
:1056D00003F13760144600F5D830B0FBF1F0FEF767
:1056E000D7FB2046BDE81040FEF748BCFEF76ABE77
:1056F000FEF734BEFEF722BEFEF702BEFEF70CBE7A
:10570000704700BF2DE9F0438C688BB0ECB10025E9
:10571000064689462F462B46212201A9484600F01D
:1057200071F93268202C234628BF2023D2F8048048
:1057300001A91A4630461D44E41AC0470744002C0C
:10574000E9D138460BB0BDE8F0832746F9E700BF42
:1057500000B5064A036812885B6883B001A9ADF8FA
:1057600004200222984703B05DF804FBD4AC00008B
:10577000F0B507468BB0002A33D0012A08BF0A22B1
:1057800051B3212400E0F4B2B1FBF2F502FB151194
:10579000C8B2092900F1300198BFC8B20AA988BF70
:1057A0003730214488BFC0B201F8240C661E294658
:1057B000002DE8D133B1013CE4B20AAB23442D22E1
:1057C00003F8242C3B6801AA11195B683846C4F120
:1057D000220298470BB0F0BD30228DF825202124FD
:1057E000E8E70368C9B21B6898470BB0F0BD00BF7B
:1057F0000029BABF49422D2300230A22FFF7B8BF70
:1058000070B50E4D82B02B680093009E044608E0F0
:1058100000F034F92B680193019BA2689B1B934213
:1058200007D2236820465B6998470028F0DB02B066
:1058300070BD4FF0FF3002B070BD00BF10150020EA
:10584000F8B5164682B107460D46002404E001343F
:10585000A64205F8010B07D03846FFF7D1FF002814
:10586000F5DA012326463B733046F8BD10B50446F1
:10587000006800F09FFB204610BD00BF38B54368AC
:105880008B4201D3012038BD0D460446013100682A
:1058900000F01CFF0028F6D0A36884E82100002B4C
:1058A000F0D10370EEE700BFF8B50446154632B9F3
:1058B000036803B11A700023A3602046F8BD0E46AA
:1058C0001146FFF7DBFF074648B9206810B100F02A
:1058D00071FB276000236360A3602046F8BDA560CC
:1058E0003146206801F0FCF8E7E700BF38B5002337
:1058F0000446036043608360037341B108460D466C
:1059000001F05EF9294602462046FFF7CDFF20460A
:1059100038BD00BF0023884210B5044603604360D1
:105920008360037303D08A680968FFF7BDFF2046D0
:1059300010BD00BF814203D08A680968FFF7B4BF79
:10594000704700BF2DE9F84303680F46BB42044689
:10595000816815460AD85A18974207D2C3EB07093F
:105960004FF0010835B92046BDE8F8834FF0000834
:10597000002DF8D04E1931462046FFF77FFF002852
:10598000F1D0B8F1000F0ED02368A0682A4603EBCF
:1059900009011844FDF704FF236800229A55A66008
:1059A0002046BDE8F8832068A3683946184401F012
:1059B00097F8F4E710B50B4684B0044601A91846E1
:1059C0000A2200F03FF901A801F0FAF801A9024605
:1059D0002046FFF7B7FF204604B010BD38B5054696
:1059E00041B108460C4601F0EBF821460246284634
:1059F000FFF7A8FF284638BD10B50446FFF7DAFFC9
:105A0000204610BDB2B1A9B138B584689C420ED908
:105A1000E41A013A0D469442016828BF144619441D
:105A20002246284601F03AF900232B5538BD0023C1
:105A30000B7038BD704700BF08B5FCF797F8FBF74F
:105A4000E9FA00F01BF8FAE700F0ACBA00F0B2BADD
:105A5000FFF74CBBFFF724BBFFF7FEBAFFF738BBDD
:105A6000FFF714BCFFF7EEBB08461146FFF75ABB21
:105A70000846FFF7DBBB00BF704700BF38B5224CBC
:105A8000237803B138BD01232370FFF721FB70BBDE
:105A9000FEF754FC40BB00F0E7F810BB00F07AF9C9
:105AA000E0B900232370EFF30583002BEAD1EFF375
:105AB000108172B6154B1868E0B1154C2278CAB93E
:105AC00045691D6001232370C5B1AA6101B962B6A1
:105AD00000254577836898472570D3E700F01AFAC8
