:10000000008000204577000021710000157000007D
:1000100015700000157000001570000015700000CC
:1000200015700000157000001570000021710000AF
:100030002171000015700000192300009D210000AF
:100040002171000021710000217100002171000068
:100050002171000021710000217100002171000058
:100060002171000021710000217100002171000048
:100070002171000021710000217100002171000038
:100080002171000021710000217100002171000028
:100090002171000021710000217100002171000018
:1000A000B53E0000193700002171000021710000E9
:1000B00021710000217100002171000021710000F8
:1000C00021710000217100002171000021710000E8
:1000D00021710000217100002171000021710000D8
:1000E00021710000217100002171000021710000C8
:1000F000217100001D25000021710000192400005D
:1001000021710000552300002171000021710000C1
:100110002171000021710000217100002171000097
:100120002171000021710000217100002171000087
:100130002171000021710000217100002171000077
:100140002171000021710000217100002171000067
:100150002171000021710000217100002171000057
:1001600021710000C92900002171000021710000E7
:100170002171000021710000217100002171000037
:100180002171000021710000217100002171000027
:100190002171000021710000217100002171000017
:1001A0002171000021710000217100002171000007
:1001B000217100002171000021710000FFFFFFFF8D
:1001C000FFFFFFFFFFFFFFFFFFFFFFFFFFFFFFFF3F
:1001D000FFFFFFFFFFFFFFFFFFFFFFFFFFFFFFFF2F
:1001E000FFFFFFFFFFFFFFFFFFFFFFFFFFFFFFFF1F
:1001F000FFFFFFFFFFFFFFFFFFFFFFFFFFFFFFFF0F
:10040000FFFFFFFFFFFFFFFFFFFFFFFFDEF9FFFF23
:1004100010B5054C237833B9044B13B10448AFF33E
:1004200000800123237010BDD0ECFF1F00000000EE
:10043000BCAE0000084B10B51BB108490848AFF32B
:1004400000800848036803B910BD074B002BFBD0A0
:10045000BDE81040184700BF00000000D4ECFF1FAB
:10046000BCAE0000D0ECFF1F000000002DE980486A
:1004700048F23403C4F204034EF6EC411A68C1F6A4
:10048000FF7191B00C4642F4806203911A6042F60B
:100490009E4142F69F42C2F20001C2F20002E078A1
:1004A00000230B70137023706370A370002800F09A
:1004B0008783152806D14CF21803C4F2040340F2D6
:1004C00013321A604DF61443C1F6FF7302931B7882
:1004D000012B00F06D83052B06D14CF21C03C4F2F6
:1004E00004034FF451721A604FF42043C4F2060320
:1004F0000021412503264EF22D401970CEF2000056
:100500005D7004219E72022588264EF204129970B5
:10051000CEF20002DD7449F6187459751E743C2140
:100520004026D970C0F200044FF4005306704AF21E
:1005300094014EF230201360C0F20001C1F6FF704A
:1005400001F01EFE2688ADF81C60294607A802F0BF
:1005500081F84AF294014DF61840C0F20001C1F64C
:10056000FF7001F00DFE294607A8ADF81C6007F0EA
:1005700037F8162007F08AFC42F23C37172007F0C4
:1005800085FCC2F2000741F26902C0F2000241F2AA
:100590007103C7F8382841F6E972C0F20003C0F2CF
:1005A0000002C7F83038C7F83C2841F26D0341F625
:1005B000CD72C0F20003C0F20002C7F84038C7F89D
:1005C000482841F65D6341F25902C0F20003C0F2CF
:1005D0000002C7F84C38C7F8502841F2750341F6BD
:1005E000E922C0F20003C0F20002C7F85438C7F88D
:1005F000582846F6853345F29122C0F20003C0F236
:100600000002C7F85C38C7F8602846F605033A7858
:10061000C0F20003C7F86438002A00F09E844EF64A
:100620002C70C1F6FF70457B0369002D40F07E847D
:1006300048F23402C4F204025E69116841F04001DC
:1006400011604AF208012022C4F2040183F85552D5
:1006500083F8495232704FF41972132693F84AE224
:100660000A6083F84A624AF20C01C4F2040193F86A
:100670004B620A604FF0120E002249F6187683F89A
:100680004BE283F84C22C0F2000656F804EF4FEA22
:100690000E21B1F5163F00F3AA840132372AF4D1B6
:1006A0004FF0000E22444FF4074192F8E020C0F2D0
:1006B0009331B1FBFEF15C6822709A69C3F8501265
:1006C00004211170DA681278960612D49A68802193
:1006D0001170DA6812211170002D40F0AA844FF4D5
:1006E0006142CEF200024FF080711160012283F866
:1006F000482293F849229B68002A00F00F84C02208
:100700001A704EF66C73C1F6FF734EF670781C8843
:1007100002694FF4546304EB4404C1F6FF78C0F25D
:100720000303E400C2F87832D8F800002246002122
:1007300008F030FA4EF67473C1F6FF73186800289B
:1007400000F0F0832246002108F024FA4FF2C8039B
:10075000C4F20F03FF221A60022007F097FB0E205D
:1007600007F094FB072007F091FB082007F08EFBB1
:10077000062007F08BFB142007F088FB152007F0FC
:1007800085FB052007F082FB42F23833C2F20003FA
:1007900048F204061A7848F2080102F0F0024FF419
:1007A0000043102AC4F20B03C4F20B06C4F20B017F
:1007B0004FF000020CBF4FF0950E4FF04A0E48F27A
:1007C0000C001A60C4F20B003260C1F800E04FF078
:1007D000080648F214011E60C4F20B014FF06903D1
:1007E000036048F210000B60C4F20B004EF6547523
:1007F00048F218030CBF23261126C4F20B03C1F6DE
:10080000FF7506604DF628490CBF672033204AF279
:1008100048011860C1F6FF792B68C4F204014FF457
:100820004070C0F20100B9F1804F0860CB469A8059
:10083000DA71C3F8009001D39A680AB901229A606C
:100840004FF2C4020026C4F20F024FF0020A4EF625
:1008500054701A6183F806A0DE609E829E61C1F624
:10086000FF7007F0FFFA4EF654702146C1F6FF7094
:1008700008F030F92968D8F800208B8B4EF65C78A8
:10088000C1F6FF789BB243F008038B83D8F80030A1
:1008900060424FF2C0011A60D860A2B2C4F20F01E8
:1008A0000120DA8383F806A0DA82988098601961C3
:1008B000DE719E829E61404607F0D4FA2146404692
:1008C00008F008F9D8F800104EF6647A8A8BC1F661
:1008D000FF7A92B2DAF8003042F00802BBF1804FA2
:1008E0008A83C3F800909E80DE7180F00583012228
:1008F0009A604FF2C8020026C4F20F0202214EF69F
:1009000064701A61DE609E829E619971C1F6FF700B
:1009100007F0A8FA4EF664702146C1F6FF7008F0A1
:10092000D9F8DAF800102B798A8B92B242F00802DB
:100930008A838A8B03F1804303F5043392B242F039
:100940000202B2208A831E70187098F8043003F1F6
:10095000804303F50433A2221E701A709AF8043003
:1009600003F1804303F50433A3221E701A7098F834
:1009700004102E79019101F0FC0006F0FC0400F156
:10098000804004F1804400F5014004F5014403680F
:1009900022684FEAC10C4FEAC60E0CF018090EF09F
:1009A000180B1BBA12BA23FA09F322FA0BF203F05E
:1009B0000F0302F00F024EF6547C4EF65C7E93421B
:1009C000C1F6FF7CC1F6FF7E17D28EF804608CF86A
:1009D00004102368DCF80040DEF80020CEF8004068
:1009E0001BBA23FA0BF38E460196314603F00F0330
:1009F000CB460446CCF8002076469AF8040000F076
:100A0000FC0E0EF1804E0EF5014E4FEAC00CDEF8E2
:100A100000200CF0180A12BA22FA0AF202F00F02B1
:100A20004EF6647993428446C1F6FF7918D989F865
:100A3000041088F80400DEF800E0D8F80030D9F897
:100A40000020C9F800309EFA8EF323FA0AF3864696
:100A5000DDF804C0C8F80020084603F00F03714613
:100A6000226812BA22FA0BF202F00F029A4208D957
:100A7000D8F800302A6888F8046029712B60C8F81B
:100A800000204FEA6C134DF20061C1F6FF719B002C
:100A90000CF1100C48F60D05012203F1604300F043
:100AA0001F00C0F2000502FA00F041F82C5003F5D7
:100AB000614342F63C424EF6045142F6384442F657
:100AC000A44642F23C38C2F20002CEF200011860A5
:100AD000C2F200040492C2F200060591C2F20008BC
:100AE00072B64EF21803059ACEF200031B68216815
:100AF000126862B6550102D5322B88BF01314FF41E
:100B00007A7202FB01F2C3F5EA3348F689000499D0
:100B1000C8F68800BF33A0FB0303096802EB9313F8
:100B200049F28060591AC0F2980042F63C42814274
:100B3000C2F2000200F20B81039B9D794EF6EC435A
:100B4000C1F6FF7365BB93F8079009F10A03DBB2A6
:100B500043EA09294FEA092949F028092846494664
:100B6000013506F0C9FFB5F58A5FF7D1022005F01F
:100B700003F9642800F3E980002801DB029BD861B7
:100B800004F000FF039BDB790133DBB24EF6EC424D
:100B9000C1F6FF72192B88BF0023D37107F0C4F888
:100BA000BB7CABB13378002B9AD107F0E9FC97E717
:100BB0004AF24403C4F204034FF451721A6093E4FE
:100BC0004AF24003C4F2040340F213321A6079E49B
:100BD000D8F8280803681B6998470028E2D0D8F89D
:100BE000280803681B699847B0F5005F80F2A6806B
:100BF000D8F828B8D8F8143882460028D0D0019701
:100C000099465F469B4623680793079D0AE0337821
:100C10000BB907F0B5FC23680693069BBA685B1B0B
:100C2000934247D23B6838465B6998470028EEDB21
:100C300009F8010BCBEB09035345E4D3019F0025D1
:100C4000A94617E098F82C0888423CD07B68FA68DF
:100C5000F8180133934201757B6008D30123C8F86B
:100C60000490C8F81C98C8F8209888F819380135FD
:100C7000AA4595D9D7F8142897F82E38515D7A7C73
:100C800087F8189899427974DCD1914218D098F875
:100C90002C388B42DAD17B68FA1882F81490D3B9D9
:100CA0000122C8F80430C8F81C38C8F8203888F881
:100CB0001928DCE7BB460123019F8BF80C30BEE707
:100CC00088F81190C2E79342C0D07B68FA1882F886
:100CD0001490002BE4D042F65C32C2F200020223F0
:100CE0004FF0010B98F82D1888F81190A2F60C001F
:100CF000C8F80490C8F81C98C8F8209888F819B863
:100D000088F8183806F06CFEC8F81C0888B188F816
:100D100019B888F81AB807F001FFC0B2312888F86E
:100D2000010040F2EE80D7F83038002B9FD0984772
:100D30009DE788F81A0888F80100F4E7D8F828B881
:100D4000D8F814384FF4005A59E7642016E7002009
:100D5000136005F011F8013002D0012005F00CF805
:100D6000002005F009F80546013009D0002005F003
:100D700003F8411C04D015EB00255CBF029B9D616C
:100D8000022004F0F9FF642800F3B280002880F20A
:100D9000B080032004F0F0FF642800F3A580002851
:100DA00080F2A380042004F0E7FF421C05460AD02D
:100DB000052004F0E1FF431C05D005EB0025691C6C
:100DC0001CBF029B5D62062004F0D6FF421C054654
:100DD0000AD0072004F0D0FF431C05D005EB002506
:100DE000691C1CBF029B9D62082004F0C5FF421CC9
:100DF00005460AD0092004F0BFFF431C05D005EBCF
:100E00000025691C1CBF029BDD620A2004F0B4FFB0
:100E1000421C05460AD00B2004F0AEFF431C05D04F
:100E200005EB0025691C1CBF029B1D630C2004F010
:100E3000A3FF421C05460AD00D2004F09DFF431C71
:100E400005D005EB0025691C1CBF029B5D630E20CD
:100E500004F092FF421C05460AD00F2004F08CFFDC
:100E6000431C05D005EB0025691C1CBF029B9D633C
:100E7000102004F081FF421C05460AD0112004F026
:100E80007BFF431C05D005EB0025681C1CBF029BA3
:100E9000DD63122004F070FF411C05460AD01320C8
:100EA00004F06AFF421C05D005EB00256B1C1CBF3B
:100EB000029B1D64029BDB69002B05DB192B039A47
:100EC000D4BF012300231371029BDB6AA3F51C53DB
:100ED000113B46F236329342039A8CBF0023012322
:100EE000537100F0C7F827E66420029B186259E7A7
:100EF0006420029BD8614CE79A68002A7FF4F9AC21
:100F0000F5E498F81A38002B3FF40DAF08EB800099
:100F1000D0F83438002B7FF40AAF04E780221A702F
:100F2000FFF7EFBBD8F800201A600FE4012D27D09F
:100F30005A690021202683F8491283F85512167049
:100F40004AF20801C4F204016422132693F84AE22B
:100F50000A6083F84A62FFF786BB10A9302301F8C4
:100F6000033DD7F82808036801225B683A70BA7419
:100F700098473B78ABB90023BB743B70FFF74FBB7E
:100F800048F23402C4F204025E69116841F0800143
:100F900011600022202183F8492283F85522317004
:100FA000CEE7D7F8280897F82D1803681B689847EC
:100FB0004AF2A401C0F20001D7F8280801F0E0F8D5
:100FC0003B78002BD7D0D7F8280897F82C1803685F
:100FD0001B689847FB7C002BCDD0D7F82808ADF8CC
:100FE0001C6003682A4607A95B689847C3E762B399
:100FF00054F822C04FEA0C26C6F5163888EAE8767F
:10100000A6EBE876A1F5163149F618798E42C0F2C2
:10101000000902F1FF383FF745AB09EB08024FF436
:101020000741C0F2933192F8E020B1FBFCF1FFF7E9
:1010300042BB012D7FF45AAB4FF46142CEF2000265
:101040004FF000711160FFF751BB4CF2C061C0F26C
:101050002D01FFF730BB00BF4EF6F443C1F6FF731E
:101060001E221A60704700BF704700BF704700BF64
:10107000704700BFF0B542F23C34C2F200048BB0BE
:101080002378002B00F0AC81D4F8280894F82D18B0
:1010900002684DF62C43C1F6FF7312681D68904735
:1010A000D4F82808002D40F0B08130238DF8253089
:1010B00001222121036801AD5B68294498474DF660
:1010C0003043C1F6FF7322781E6842F23C35C2F20B
:1010D0000005002A00F08780D5F8280895F82D181B
:1010E00003681B689847002ED5F82808C0F22182B3
:1010F00040F04B8430238DF82530012221210368F4
:1011000001AD29445B689847237842F23C35C2F22E
:101110000005002B00F07481D5F8280895F82D18EB
:1011200002684DF63443C1F6FF7312681E6890479B
:10113000002ED5F82808C0F2C58140F0498430233C
:101140008DF8253001222121036801AD29445B6817
:1011500098474DF63843C1F6FF7322781E6842F275
:101160003C35C2F20005002A00F08780D5F8280837
:1011700095F82D1803681B689847002ED5F82808A5
:10118000C0F2258340F0DD8330238DF82530012225
:101190002121036801AD29445B689847237842F216
:1011A0003C35C2F20005002B00F02A81D5F8280852
:1011B00095F82D1802684DF63C43C1F6FF7312688E
:1011C0001E689047002ED5F82808C0F2578240F0DC
:1011D000108430238DF8253001222121036801ADD0
:1011E00029445B6898474DF64043C1F6FF73227867
:1011F0001E6842F23C35C2F20005002A00F08780EA
:10120000D5F8280895F82D1803681B689847002E14
:10121000D5F82808C0F2A48240F0A58330238DF8C9
:10122000253001222121036801AD29445B689847DC
:10123000237842F23C35C2F20005002B00F0E0803A
:10124000D5F8280895F82D1802684DF64443C1F6E4
:10125000FF7312681E689047002ED5F82808C0F268
:10126000ED8240F0A48330238DF825300122212126
:10127000036801AD29445B6898474DF64843C1F6C1
:10128000FF7322781E6842F23C35C2F20005002A44
:1012900000F0B680D5F8280895F82D1803681B686B
:1012A0009847002ED5F82808C0F2238240F03783F3
:1012B00030238DF8253001222121036801AD294416
:1012C0005B689847237842F23C35C2F20005002B58
:1012D00000F09680D5F8280895F82D1802684DF68C
:1012E0004C43C1F6FF7312681E689047002ED5F874
:1012F0002808C0F2558140F0FF8230238DF8253058
:1013000001222121036801AD29445B6898474DF60D
:101310005043C1F6FF7322781E6842F23C35C2F298
:101320000005002A6CD0D5F8280895F82D18036818
:101330001B689847002ED5F82808C0F2688140F055
:10134000C88230238DF8253001222121036801ADA8
:101350005B6829449847237842F23C36C2F2000683
:10136000002B4DD0D6F8280896F82D1802684DF6B7
:101370005443C1F6FF7312681D689047002DD6F8DC
:10138000280868DB40F0918230238DF82530012257
:101390002121036801AD29445B689847237842F214
:1013A0003C35C2F200055BB3D5F8280895F82C1837
:1013B00003681B689847EB7C13B34AF2B003C0F292
:1013C0000003D5F828081B88ADF80430036801A98C
:1013D0005B68022298470023A37423700BB0F0BD12
:1013E0000AA9382301F8033DD4F82808036801222C
:1013F0005B682270A27498472378002B7FF444AE78
:101400000023A37423700BB0F0BD4CF6CD46CCF690
:10141000CC46A6FB0523DB0803EB8302A5EB4205C4
:1014200030358DF82550002B00F0FC822121A6FBE1
:101430000352D20802EB82050139A3EB4503C9B27E
:101440000AAD0D44303305F8243C1346002AEED192
:10145000C1F122022EE64CF6CD436D42CCF6CC43D0
:10146000A3FB0523DB0803EB8302A5EB4205303524
:101470008DF82550002B00F026832D274CF6CD4605
:10148000CCF6CC462122A6FB0351C90801EB81050D
:10149000013AA3EB4503D2B20AAD1544303305F847
:1014A000243C0B460029EED1002F00F00883013ABE
:1014B000D2B20AAB134411462D2203F8242CC1F1F9
:1014C000220266E74CF6CD437642CCF6CC43A3FB32
:1014D0000623DB0803EB8302A6EB420630368DF8C9
:1014E0002560002B00F0FD822D274CF6CD46CCF672
:1014F000CC462122A6FB0351C90801EB8105013A24
:10150000A3EB4503D2B20AAD1544303305F8243CB1
:101510000B460029EED1002F00F0DE82013AD2B254
:101520000AAB134411462D2203F8242CC1F12202E8
:101530000AE64CF6CD437242CCF6CC43A3FB021331
:10154000DB0803EB8306A2EB460230328DF8252040
:10155000002B00F0BF822D274CF6CD46CCF6CC46B2
:101560002122A6FB0351C90801EB8105013AA3EB37
:101570004503D2B20AAD1544303305F8243C0B467E
:101580000029EED1002F00F0A082013AD2B20AABBE
:10159000134411462D2203F8242CC1F12202AEE59A
:1015A0004CF6CD437642CCF6CC43A3FB0623DB08B6
:1015B00003EB8302A6EB420630368DF82560002B44
:1015C00000F074822D274CF6CD46CCF6CC46212275
:1015D000A6FB0351C90801EB8105013AA3EB4503C2
:1015E000D2B20AAD1544303305F8243C0B4600292D
:1015F000EED1002F00F05682013AD2B20AAB13446A
:1016000011462D2203F8242CC1F122027AE64CF671
:10161000CD437642CCF6CC43A3FB0623DB0803EB99
:101620008302A6EB420630368DF82560002B00F0D1
:1016300037822D274CF6CD46CCF6CC462122A6FB90
:101640000351C90801EB8105013AA3EB4503D2B26E
:101650000AAD1544303305F8243C0B460029EED181
:10166000002F00F01982013AD2B20AAB134411469E
:101670002D2203F8242CC1F1220267E64CF6CD435B
:101680007642CCF6CC43A3FB0623DB0803EB8302B4
:10169000A6EB420630368DF82560002B00F0BE81A7
:1016A0004FF02D0E4CF6CD47CCF6CC47212500E06F
:1016B0001546A7FB0321C90801EB81066A1EA3EBAF
:1016C0004603D2B20AAE1644303306F8243C0B4629
:1016D0000029EDD1BEF1000F00F0D381023DEDB243
:1016E0002946C5F122020AAB1D442D2305F8243CEE
:1016F00074E54CF6CD437242CCF6CC43A3FB021307
:10170000DB0803EB8306A2EB460230328DF825207E
:10171000002B00F0BF812D274CF6CD46CCF6CC46F1
:101720002122A6FB0351C90801EB8105013AA3EB75
:101730004503D2B20AAD1544303305F8243C0B46BC
:101740000029EED1002F00F0A181013AD2B20AABFC
:10175000134411462D2203F8242CC1F12202ACE5DA
:101760004CF6CD437242CCF6CC43A3FB0213DB080C
:1017700003EB8306A2EB460230328DF82520002BC6
:1017800000F079812D274CF6CD46CCF6CC462122AF
:10179000A6FB0351C90801EB8105013AA3EB450300
:1017A000D2B20AAD1544303305F8243C0B4600296B
:1017B000EED1002F00F05A81013AD2B20AAB1344A5
:1017C00011462D2203F8242CC1F122022BE54CF600
:1017D000CD437242CCF6CC43A3FB0213DB0803EBF0
:1017E0008306A2EB460230328DF82520002B00F054
:1017F0003B812D274CF6CD46CCF6CC462122A6FBCC
:101800000351C90801EB8105013AA3EB4503D2B2AC
:101810000AAD1544303305F8243C0B460029EED1BF
:10182000002F00F01C81013AD2B20AAB13441146DA
:101830002D2203F8242CC1F12202AAE44CF6CD4358
:101840007642CCF6CC43A3FB0623DB0803EB8302F2
:10185000A6EB420630368DF82560002B00F02D8176
:101860002D274CF6CD46CCF6CC462122A6FB0351C3
:10187000C90801EB8105013AA3EB4503D2B20AADD9
:101880001544303305F8243C0B460029EED1002FD7
:1018900000F00E81013AD2B20AAB134411462D2258
:1018A00003F8242CC1F12202E2E44CF6CD43CCF63D
:1018B000CC43A3FB0523DB0803EB8302A5EB420526
:1018C00030358DF825500BB10027D7E501222121B5
:1018D0005FE54CF6CD43CCF6CC43A3FB0623DB08F7
:1018E00003EB8302A6EB420630368DF82560002B11
:1018F00000F0918000279DE64CF6CD43CCF6CC431A
:10190000A3FB0623DB0803EB8302A6EB420630367B
:101910008DF82560002B00F09380002753E64CF6ED
:10192000CD43CCF6CC43A3FB0623DB0803EB8302B9
:10193000A6EB420230328DF82520002B7AD000270A
:10194000EAE64CF6CD43CCF6CC43A3FB0623DB08FA
:1019500003EB8302A6EB420230328DF82520002BE8
:1019600075D0002746E74CF6CD43CCF6CC43A3FB1D
:101970000623DB0803EB8302A6EB420230328DF82C
:101980002520002B52D00027FDE64CF6CD43CCF6A7
:10199000CC43A3FB0623DB0803EB8302A6EB420246
:1019A00030328DF82520002B4DD00027D4E54CF6A1
:1019B000CD43CCF6CC43A3FB0623DB0803EB830229
:1019C000A6EB420630368DF82560B3B3002748E712
:1019D0004CF6CD43CCF6CC43A3FB0623DB0803EB4C
:1019E0008302A6EB420630368DF825609BB30027B4
:1019F0007BE54CF6CD43CCF6CC43A3FB0623DB08BA
:101A000003EB8302A6EB420630368DF82560A3B3C4
:101A10004FF0000E46E60122212197E420210D46D9
:101A2000022260E601222121FFF744BB012221218D
:101A3000FFF7F9BB012221213FE40122212117E414
:101A4000012221215EE401222121FFF758BB01225E
:101A50002121FFF79EBB01222121FFF775BB114613
:101A6000C2F12202FFF795BB2122DCE61146C2F14A
:101A70002202FFF7D8BB21229EE601222121FFF797
:101A8000ADBB1146C2F12202FFF7A8BB1146C2F15D
:101A9000220212E4212258E61146C2F1220255E444
:101AA0002122E0E51146C2F122022BE42122A3E526
:101AB0001146C2F12202FFF7DBBB2122EAE6114602
:101AC000C2F1220265E42122F1E41146C2F12202B0
:101AD000FFF715BB212258E51146C2F12202FFF79C
:101AE00033BB21221AE500BF2DE9F04F42F23C340E
:101AF000C2F200048BB094F81838002B43D0012BAD
:101B000004BF022384F8183894F8193842F23C359F
:101B10000CBF04F114000020C2F20005002B40F0BD
:101B20009181D5F81C0860B3012384F8193884F832
:101B30001A3806F0F7FF94F81838C0B28DF826006E
:101B400043BB002084F81A088DF82500002B41D0F3
:101B5000012B00F0458194F8193842F23C35002001
:101B6000C2F20005002B40F04B81D5F81C0888B369
:101B7000012384F8193884F81A3806F0D3FFC0B26C
:101B80002BE094F81838002084F81A088DF8260005
:101B9000002BD6D0012B00F03C8194F8193842F28A
:101BA0003C350020C2F20005002B40F04281D5F800
:101BB0001C08002800F04F81012384F8193884F8AC
:101BC0001A3806F0AFFF94F81838C0B28DF8250027
:101BD000002BBDD1002084F81A088DF82400099B41
:101BE000BDF8242042F2383E1F46C2F2000E4EF6E7
:101BF0006C760297C1F6FF7638121B029EF80090B1
:101C0000DDF808E03688019603F47F0C00F47F4489
:101C10004EF6747523F07F433904C1F6FF75C7F3A0
:101C200007474CEA040423F0FF035FFA8EF601F441
:101C30007F0134433B4352BA80B2D5F8008003940D
:101C400041EA070592B201430EF47F4405930EF476
:101C50007F030491134345EA04010691079309F0B9
:101C600007094FF0000CA3E0B9F1010F00F0B180BB
:101C7000B9F1020F40F0AB80039B0199BCFBF1F47A
:101C80009E1301FB14C1581101EB410106F480764B
:101C9000C3F3C05232431D0100F480364FF00130CF
:101CA0001643A04058F8312005F08075C0433543F5
:101CB000A54002402A434FEAA32A48F831204FEAC0
:101CC000630E0AF48072C3F3C04A4AEA020A0EF4B1
:101CD000803E4AEA0E074FEA032E9E110EF0807EE8
:101CE00047EA0E0E06F48076C3F3C0373E43DF00AA
:101CF0009D1007F4803705F480753E43C3F3C02779
:101D000008EBC1012F43DD014FEA830B05F4803559
:101D10004A683D430BF4807BC3F3C01747EA0B0BC3
:101D2000DF0202404FEA831A07F480370EFA04FEFE
:101D30004EEA020E4BEA070B1A03C3F3C0070AF47C
:101D4000807A47EA0A0A02F08072DF03164307F43A
:101D500080371A044AEA070702F080724FEA035AF2
:101D60001B0615430AF0807A03F0807247EA0203EB
:101D70004BEA0A0AA540A6400AFA04FAA3400C69F5
:101D80008F68CA68C1F804E000EA040E4C69074095
:101D900002400CF1010C20402A4337434AEA0E0569
:101DA0000343BCF58A5F8F60CA600D614B6114D03C
:101DB000B9F1030F09D07FF657AFB9F1040F0AD07C
:101DC000B9F1050F03D1069B57E7049B55E7029B2A
:101DD00053E7079B51E7059B4FE70BB0BDE8F08F3A
:101DE000022384F8183894F8193842F2503042F23D
:101DF0003C35C2F20000C2F20005002B3FF4B5AE44
:101E000005F5026295F82D1805F0EAFDC5F81C08E5
:101E1000ADE6022384F8183894F8193842F25030AD
:101E200042F23C35C2F20000C2F20005002B3FF442
:101E3000BEAE05F5026295F82D1805F0D1FDC5F886
:101E40001C08B6E605F5026295F82D1805F0C8FDE8
:101E5000C5F81C0867E694F8183872E62DE9F04FCB
:101E60004AF29003C0F2000383B01B78002B7ED0AF
:101E70004EF6F143C1F6FF731B78002B77D042F288
:101E80003831C2F200014EF66C724EF67473C1F630
:101E9000FF72C1F6FF730978B2F800C0D3F800A052
:101EA000CDF800C001F007054FF0000947E0042D10
:101EB0007CD0052D7AD000224FF480310120009B88
:101EC0000192B9FBF3F396469446994000FA03F861
:101ED000009800FB139B0BEB4B0B4FF0013000FA0B
:101EE00003F35AF83B00DB43184001434AF83B1028
:101EF0000AEBCB0B0BF1040083C8DBF8106006EA99
:101F00000304DBF81460184019401F403340019E61
:101F100009F1010940EA080041EA0C0147EA0E070D
:101F200034431343B9F58A5FCBF80400CBF80810AB
:101F3000CBF80C70CBF81040CBF8143013D0032D35
:101F400002D0B4D8022DB6D14FF480300022009BCD
:101F5000B9FBF3F300FA03FC01200192904611460D
:101F600000FA03FEB4E703F00DFD03F0F1F94EF6BD
:101F7000F444C1F6FF742368002B04DD03F0E8F994
:101F80002368013B23604EF6F043C1F6FF731B78D4
:101F90000BB103F0DDF905F0C7FE4EF6F243C1F6D2
:101FA000FF7301221A7003B0BDE8F08F4FF4803246
:101FB000009BB9FBF3F39A404FF0000E019201220F
:101FC000F446F04671469A4082E700BF10B50024FF
:101FD0002046013405F080FEB4F58A5FF8D1BDE8F3
:101FE000104005F0A1BE00BF38B542F23C34C2F249
:101FF000000494F81838DBB1012B04BF022384F8E5
:10200000183894F8193842F23C350CBF04F114002A
:102010000020C2F200057BB9D5F81C0840B10123AD
:1020200084F8193884F81A38BDE8384006F076BDCF
:10203000002384F81A3838BD05F5026295F82D188A
:1020400005F0CEFCC5F81C08E8E700BF08461146BD
:1020500000F000BB00B583B002A800F8011D01210B
:1020600000F0F8FA03B05DF804FB00BF10B50846B5
:102070001446114605F0B4FA204610BD48F2340368
:10208000C4F204031B685A0578D54EF6A863C1F65E
:10209000FF732DE9F0471B680BB101221A704EF651
:1020A000EC48C1F6FF784EF6ED4598F80040013453
:1020B0003F2C88BF4FF0000A4EF6AC674FF4204625
:1020C00094BF5FFA84FA54468946C1F6FF75C1F69B
:1020D000FF77C4F206062B78A3422AD1EFF31383CD
:1020E000002B39D1EFF31083002B35D1EFF30582AC
:1020F000002A40D00F2A05D94EF2F033CEF2000369
:1021000013441B78EFF3118212B1934228BF134698
:10211000402B21D9B3F5807FDDD142F6A443C2F232
:1021200000031B78002BD6D106F02AFA2B78A342A5
:10213000D4D04EF6EE434FF42042C1F6FF73C4F202
:10214000060207F804900120BC21187088F800A04E
:10215000D1700120BDE8F08733791B06BBD52B7801
:1021600001333F2B86BF00221346DAB2FB5CDBB2A1
:10217000F3712A70AFE74FF48073C3E70120704713
:1021800070B5044608460D4607F09AFD23680246DE
:10219000294620465B68BDE87040184742F6384340
:1021A0002DE9F041C2F200034EF6FC45C1F6FF7581
:1021B0001A682C6801321A60002C31D02368002B79
:1021C0002CD198462E46022703E0346844B3236896
:1021D00023BBA3680BB1C3F80C8020692B60036894
:1021E00084F814801B682246002198476368002BFE
:1021F000EBD030682360002800F0838001688B42B8
:1022000045D2CB1AA060C4F80C8034600360C4606F
:102210002046277504462368002BDAD0013B236053
:10222000EFF3108372B6002268686A6003B962B681
:1022300000286BD04FF000082E68C4464FF0020E05
:102240000EE0CB1A8660C0F80CC001463360F06027
:102250004FF0010880F814E00E463846002F37D0C2
:102260008768002E39D0036831688B42E9D3344641
:1022700003E011688B4214461BD3A2685B1A03600B
:10228000002AF6D18260C4603146A060E2E786464B
:1022900003E011688B42964625D3DEF808205B1ACE
:1022A0002360002AF5D1A260C4F80CE0CEF8084003
:1022B000AFE7D268C2608460E060C268CB1A314682
:1022C00090600E46236080F814E03846002FC7D196
:1022D000B8F1000F1CD1BDE8F0818660C6600146F0
:1022E0004FF00108B6E7D268E260C4F808E0CEF823
:1022F0000C40E268CB1A9460CEF800302775044693
:1023000065E7A060E0603460204682E7BDE8F081C8
:102310002960BDE8F08100BF38B5EFF3108272B6D6
:102320004EF6FC44C1F6FF74A06878B100254369FD
:10233000A36003B19D6102B962B64577836898478F
:10234000EFF3108272B6A0680028F0D102B962B62D
:1023500038BD00BF10B44FF44043C4F206031A79ED
:10236000920619D542F6A242C2F20002D879137839
:1023700042F6A341C2F2000101333F2B0978C8BFE6
:1023800000238B42C0B207D04EF6FC41C1F6FF716C
:102390001944DBB2087313704FF44042C4F20602D2
:1023A000D378DBB21C0613D459060FD54FF4404343
:1023B000C4F206031A79520608D54EF6FC42C1F65D
:1023C000FF7200202C2182F87800D97010BC704771
:1023D00011790806E8D54EF6FC40C1F6FF7090F87A
:1023E0004C4090F84D10C9B28C4211D04A1C272A9B
:1023F00086BF00242246D4B202444FF4404192F8F2
:102400005020C4F20601D2B2CA7180F84D40CBE729
:102410006C21D170C8E700BFF0B54FF43043C4F26F
:1024200006031A7912F0300F2BD072B6997D01F0A5
:10243000FF02002940D062B642F6A04742F6A14111
:10244000C2F20007C2F200013C780E784EF6FC4E54
:102450001846E4B2F6B2C1F6FF7E631C402BC17988
:1024600028BF0023B34202F1FF32C9B204D00EEB01
:1024700003051C4685F87C1012F0FF02EDD1E4B292
:102480003C704FF43042C4F20602D178C9B20D0656
:1024900017D449060FD54FF43043C4F206031A7916
:1024A000520608D54EF6FC42C1F6FF7200203C21D0
:1024B00082F8E800D970F0BD4022D9795A7462B62A
:1024C000DFE713791C06E4D54EF6FC44C1F6FF7431
:1024D00094F8BC5094F8BD30EDB2DBB29D4202D10D
:1024E0000EE0AB420CD00133282B28BF0023E018AC
:1024F000167990F8C000C0B2D071107D0728F0D9CD
:102500004FF43042DBB2C4F2060284F8BD301379D6
:10251000180644BF7C23D370BBE700BFF0B44FF470
:102520002043C4F206031A7912F0300F38D072B685
:10253000997D01F0FF02002958D062B642F69E470D
:1025400042F69F41C2F20007C2F200013C780D78CA
:102550004EF6EC661846E4B2EDB2C1F6FF76631CA7
:10256000402BC17928BF0023AB4202F1FF32C9B230
:102570001CBFF1541C4612F0FF02F0D14EF6A462CB
:10258000C1F6FF72E3B212683B704AB1AC4236BF8B
:10259000C5F14005641B6419272CC4BF01231370C7
:1025A0004FF42042C4F20602D178C9B20D0622D4FB
:1025B0004A0619D54FF42043C4F206031B795B0683
:1025C00012D54EF6A862C1F6FF724EF6EE43C1F682
:1025D000FF7312680021197002B111704FF420438B
:1025E000C4F206033C22DA70F0BC70474022D9796D
:1025F0005A7462B6D4E713791C06D9D54EF6EC436B
:102600004EF6ED46C1F6FF73C1F6FF761C783378BF
:10261000E4B2DBB29C4211D04EF6AC65C1F6FF7558
:1026200001E0A3420AD00133402B28BF00231079D8
:10263000E85CC0B2D071107D0728F2D94FF4204277
:10264000DBB2C4F2060233701379180644BF7C2350
:10265000D370ADE72DE9F04F42F66D43C2F20003AF
:1026600087B01A460293012313700591002900F0E8
:10267000B38042F6744B4EF2402342F6704842F665
:102680004C4AC2F2000BC1F6FF7304460F46C2F279
:102690000008C2F2000A0393CDF804B008E042F645
:1026A0008443C2F2000305221A70002F00F09380C9
:1026B000D8F80020002A00F0A2805688C6F1400316
:1026C000BB4228BF3B464EF6FC41C1F6FF71F018F5
:1026D00080B2002502F1080B81F8E950FF1A508002
:1026E00003F1FF3E0BEB0601002B41D006F1080081
:1026F0000C361644104404F1040C604538BFB44253
:102700002CBF01260026092B94BF002606F00106E7
:10271000002E6BD044EA0006B60767D11E1FB6082C
:102720000136BEF1020F4FEA860C5DD9A4F104090F
:102730000492013559F8042F40F8042BAE42F8D822
:102740006345049A6144CCEB0E0E04EB0C0000F0E0
:10275000C68005780D70BEF1000F43D045784D70EE
:10276000BEF1010F3ED080788870234450881C460B
:102770003F2894D94023138072B642F68843C2F2B0
:102780000003D978012900F0C680C0F0BE8002297C
:1027900000F0B580032940F0A68048F2980104209B
:1027A000C1F6FF71D8701288C1F804B011F0080F9B
:1027B0000CBF8823C82343EA02430B6062B60023A0
:1027C000C8F8003042F68443C2F2000305221A70B2
:1027D000002F7FF46DAF029A05980023137007B0A5
:1027E000BDE8F08F2344C1E72046B2E70139234416
:1027F00014F8010B01F8010F9C42F9D1B6E74DF234
:10280000E9059AF8003003F0FF022BB372B6019B82
:10281000DB68002B65D000225B680132002BFBD106
:1028200062B6072A1FD94EF6FC41013DC1F6FF7181
:102830004DD091F8E930002B49D142F6A443C2F2C1
:1028400000031B78002BDCD105F09AFE9AF80030CB
:1028500003F0FF02002BD9D1029B4FF0FF301A701A
:1028600007B0BDE8F08F029A0123137072B6039B84
:102870001A68B2FA82F34EF240210B2BC1F6FF71B7
:1028800016DC4FF00040D84022EA00020A6062B62F
:102890004DF2BC72C1F6FF7203EBC30302EBC3013E
:1028A000002042F83300C8F800100A46486004E7E8
:1028B00062B642F66D42C2F2000200234EF6FC41BF
:1028C000013DC8F800301370C1F6FF71B1D101238A
:1028D0004FF0FF3081F8E93007B0BDE8F08F0346D4
:1028E00044E71A469CE7019BDB6842F68C41C3B182
:1028F000C2F20001CB685A60CA6062B65FE748F274
:1029000090010520C1F6FF714CE748F290010320C9
:10291000C1F6FF7146E748F29801C1F6FF71022047
:1029200040E7019BC2F20001DA60E5E74DF2BC73BB
:10293000C1F6FF7348F63962C31AC3F6E302A2FB7D
:1029400003231B090B2B1AD810B442F66C42C2F2B7
:102950000002117829B142F64C41C2F20001097817
:1029600071B972B64EF24022C1F6FF724FF00040CC
:10297000116820FA03F31943116062B610BC704766
:1029800072B648F20001C1F6FF710C6E84B18C6E14
:102990001CB162B600211170E3E71378C824083037
:1029A000013BC0F24004C86613708C6662B6E5E76E
:1029B000137888240830013BC0F240044866137045
:1029C0000C6662B6DAE700BF2DE9F04F42F29403DD
:1029D00089B042F298024FF4035142F2C4004FF41E
:1029E000025942F2900AC4F20703C4F20702C4F289
:1029F0000701C4F20700C4F20709C4F2070A0093F2
:102A000001920291039070E048F200068F08C1F62F
:102A1000FF7606EBC708013DD8F8042001F0080155
:102A2000EDB2A2F1080001F0FF04002940F0C980D6
:102A300056F837301B0C1FFA83FE22F808EC002BE7
:102A400000F0B28042F65441C2F2000122F8064C76
:102A500051F8253042F8044C4EF6FC44002B00F0AF
:102A60002884C1F6FF74AB00E218D2F80821506048
:102A700042F6644BC2F2000B1C443BF81530C4F81C
:102A800008019E442BF815E072B64EF24022C1F6C2
:102A9000FF721168B1FA81F30B2B00F311844FF030
:102AA0000040D84021EA0001116062B64DF2BC71CD
:102AB00003EBC303C1F6FF71C824C0F2400401EB6D
:102AC000C300882218F0080FC0F2400200F1080588
:102AD00018BF2246C8F80450002446F8372041F8B1
:102AE00033404460082389F8003099F80030DBB2A5
:102AF000580725D542F64C42C2F200021278E2B1E4
:102B00004EF6FC42C1F6FF7292F8F40000F0FF01AD
:102B100028B10139C9B282F8F41001B900BE42F6F9
:102B20008442C2F20002107800F0FF0128B101399E
:102B3000C9B21170002900F03F83042289F80020F7
:102B400003F0080202F0FF01002A00F0B7809AF8B3
:102B50000010C9B20D097FF457AF48F20008890888
:102B6000C1F6FF7808EBC10058F831304068C3F374
:102B70008303092B00F0C28051D8013B012B0FD8F1
:102B80004EF6FC44C1F6FF7442F22103B4F8F8504B
:102B90009D4200F08182C823C0F2400348F83130E2
:102BA000009A012313709DE7C822882318F0080FAC
:102BB000C0F24002C0F2400318BF134646F8373057
:102BC00090E7FFF7B3FE42F67442C2F2000252F8F9
:102BD0002510002900F0898342F68840C2F20000E7
:102BE0004B68445D42F82530012C01F10803C8F818
:102BF000043000F07783C0F07283022C00F06C8305
:102C0000032C01D10423435518F0080F0A880CBF88
:102C10008823C82343EA024346F8373062E70D2B86
:102C2000BED14EF6FC4406684068C1F6FF74C82366
:102C3000C0F2400348F83130C4F8FC00B3B240F2AF
:102C4000816001218342C8F81050C8F81850C4F8B8
:102C5000F860C4F8005184F8041100F29480B3F5D0
:102C6000D06F80F03C84B3F5817F00F0C68300F222
:102C70005D83802B00F02884822B40F0C583B4F85C
:102C8000FC3003F07F034EF6FC40042BC1F6FF70CE
:102C900000F2BA834FF403519B00C4F207011944B8
:102CA000002380F8EC3080F8ED300B789D0740F180
:102CB000D284012300F8EC3F0225E9E3D80700F1B4
:102CC000B182190600F122839A070CD542F28802DC
:102CD000C4F207024FF402501178C4F20700C9B2DF
:102CE000022411700470DB0605D54FF40253C4F2C0
:102CF000070310221A7009B0BDE8F08F4EF6FC44AD
:102D0000C1F6FF74D4F800315BB3B4F81E1194F827
:102D1000045194F81D0140290E4640F0020728BFD7
:102D20004026002D85F00105A1EB06010CBF4FF0F8
:102D3000880E4FF0C80E84F8045108EBC70589B21D
:102D40004EEA064280F001006B60A4F81E1148F8BC
:102D50003720334484F81D01002900F09981C4F81C
:102D60000031B4F8F8204EF6FC43B2F5A06FC1F67E
:102D7000FF737FF415AF002193F8FA2083F8F91060
:102D8000019B1A700CE742F22100834200F010828E
:102D900000F2B781B3F5086F00F07183B3F5106FDF
:102DA00040F0328342F64C43C2F20003D8F82010C0
:102DB00094F8FA001870090648F20003C1F6FF7390
:102DC00000F1DB83D8F8281048F200030A06C1F6A8
:102DD000FF7300F12384D8F8301048F200030F0687
:102DE000C1F6FF7300F11484D8F8381048F20003DC
:102DF0000E06C1F6FF7300F10584D8F8401048F2C2
:102E000000030D06C1F6FF7300F1F783D8F84810F0
:102E100048F200030806C1F6FF7300F1E983D8F811
:102E2000501048F200030906C1F6FF7300F1DB837E
:102E3000D8F8581048F200030A06C1F6FF7300F1F3
:102E4000CD83D8F8601048F200030F06C1F6FF7377
:102E500000F1BF83D8F8681048F200030E06C1F6EF
:102E6000FF7300F1B183D8F8701048F200030D062B
:102E7000C1F6FF7300F1A383D8F8781048F200037D
:102E80000806C1F6FF7300F19583D8F8801048F268
:102E900000030906C1F6FF7300F18683D8F8881095
:102EA00048F200030A06C1F6FF7300F17783D8F8F1
:102EB000901048F200030F06C1F6FF7300F168831B
:102EC000D8F8981048F200030E06C1F6FF7300F11F
:102ED000598342F6544342F6744242F68C4142F61C
:102EE0008840002642F6644BC2F20003C2F20002A0
:102EF000C2F20001C2F20000CDF810800594CDF8B6
:102F000018903546C2F2000B174680461C4689468B
:102F1000CDF81CA02068A24630B14468FFF706FD3A
:102F20002046002CF9D154464EF60463C1F6FF73D7
:102F30003868256043F82650A24630B14468FFF750
:102F4000F5FC2046002CF9D1544698F800303D603D
:102F5000032B49F8045B2BF8165000F0498240F22D
:102F60007B82042B00F07B82052B00F0418201362E
:102F7000042E04F1040407F1040708F10108C9D183
:102F800042F66C4142F2C80642F2CC00DDF81080F5
:102F9000039AC2F20001C4F20706C4F2070000233C
:102FA00005AC4FF0150E192748F2000594E81006FD
:102FB0000B70C1F6FF751370C8F83030C8F83830A0
:102FC00086F800E0C8F85030C8F85830077072B67C
:102FD0004EF24020C1F6FF700768B7FA87F60B2E55
:102FE00000F364834FF0004E2EFA06FE27EA0E0728
:102FF000076062B64DF2BC7706EBC606C1F6FF77F6
:1030000007EBC60C882247F83630C0F240020CF1BC
:103010000806CCF804306E662A6672B60068B0FA0C
:1030200080F34EF240250B2BC1F6FF7500F344836D
:103030004FF00041D94020EA0100286062B64DF20D
:10304000BC7103EBC303C1F6FF7101EBC30000F1D8
:103050000805C826C0F24006C8F86C50002541F8A3
:103060003350C8F86860456042F2D001C4F20701ED
:1030700000231520C8F87030C8F87830087094F82C
:103080000451C8F89030C8F8983085F001034AE040
:10309000402E18BF002362E603784678857884F8CE
:1030A0002031C37884F8216184F8225184F82331D7
:1030B000D4F8203106794579807984F82551862B1A
:1030C00094F81D5184F8260194F8040184F82461D1
:1030D00004BF0F2384F8F43045F00203002885F084
:1030E000010584F81D510CBF8825C82548F83350C8
:1030F00008EBC30380F00100002584F804015D6043
:1031000049E542F22120834240F00D8242F63843E5
:10311000C2F2000394F8FA001B68C4F818312B4679
:1031200084F81C010D4600210E468E460A460846CC
:1031300094F81D7147F0020C08EBCC0B002DCBF876
:1031400004000CBF8820C82040EA0E004EF6FC4B5D
:1031500048F2000E48F83C0087F0010084F8043182
:10316000C1F6FF7EC1F6FF7B84F81D01002940F007
:103170005381402A1CD140F0020008EBC00248F203
:10318000000E5660C1F6FF7E002B40F05A810B0402
:1031900043F088034EF8303084F8045184F81D71F0
:1031A0000E44402904D10021C4F80061A4F81E1186
:1031B000009A01231370F3E442F66D41C2F200015C
:1031C000097800297FF4B9AC42F67040C2F20000E1
:1031D0000168002900F0C9804A880A8072B642F668
:1031E0008842C2F20002D478012C00F02882C0F09C
:1031F0002082022C00F02982032C00F0AB8142F6E1
:103200007444C2F20004E268002A00F0498242F6E7
:103210008C42C2F20002D4686160D16062B60022C2
:1032200002608AE442F294004EF6FC42C4F20700C7
:10323000C1F6FF7248F20003C1F6FF730224047066
:1032400082F81D1102F5947402F5B472DA604FF43D
:10325000035C8822C0F24002C4F2070C42F2880EDE
:103260005C601A609A6019619961C4F2070E0D23BF
:103270004FF4025742F2980642F28C0542F284045F
:103280008CF80030C4F20707FF23C4F20706C4F22B
:103290000705C4F207048EF8003001224FF09F0E9C
:1032A0003B7031702B7084F800E0027009B0BDE80B
:1032B000F08F41F82500C1F6FF74AB00FFF7D8BBD3
:1032C00062B642F66C43C2F2000300211A7846F857
:1032D000371001321A7005E40523435594E40323A3
:1032E000435591E4022343558EE442F68842C2F2EC
:1032F0000002535D022B00F0B780FFF4F3AB032B09
:1033000040F0B58001235355FFF7ECBB4FF4035158
:103310004FF40252C4F20702C4F207010D248020C8
:103320000C7010709A077FF5DEACCFE440F20231EA
:103330008B4240F0F180B4F8FC1001F07F014EF6B2
:10334000FC430429C1F6FF735ED8B3F8FA30002BB2
:103350005AD14FF403508900C4F2070008440125F4
:10336000017841F002010170DDE672B64EF24024B0
:10337000C1F6FF742568B5FA85F00B2800F3548177
:103380004FF00042C24025EA0205256062B64DF2C8
:10339000BC7400EBC000C1F6FF7404EBC00544F838
:1033A0003010696072B642F68842C2F20002D178EB
:1033B000012900F05F81C0F05781022900F04E81A1
:1033C000032940F05D8148F298010426C1F6FF719F
:1033D00011F0080F34F83000D6700CBF8822C822D4
:1033E000083542EA004281E8240062B6FFF7A5BB37
:1033F0004FF0010388F80030B9E5B4F8FC3003F071
:103400007F03042B40F29480029A0F231370009ADA
:1034100001231370FFF7C4BB40297FF6ACAE40F028
:1034200002000EEBC0025660E3B1C823C0F24003B5
:1034300040398BF804518BF81D7140364EF830300E
:10344000B2E60B0443F0C80384F8045184F81D71FC
:103450000E444EF83030A4E6022B7FF488AD88F895
:10346000005084E58823E1E75155FFF73BBB18F096
:10347000080F0CBF022303235355FFF733BB42F65B
:103480004C43C2F2000320461B7800F8EC3F0D4687
:10349000B4F8FE104EF6FC43A942C1F6FF7380F06B
:1034A000198193F81D7147F0020C08EBCC034029F9
:1034B0000A4628BF402258608618891A4FEA024EF1
:1034C00000230125C8203FE600234EF6E85084F88B
:1034D000EC3084F8ED300225C1F6FF70D8E74DF6E8
:1034E00058404AF2B403B4F8FA50B4F8FC60C1F69C
:1034F000FF70C0F2000303E00C335868002883D04B
:103500001A88AA42F8D15A88B242F5D12D0A032D61
:103510000CBF05781D89BBE7B3F5A06F7FF474AFCE
:1035200000230125FFE542F221318B42F8D06BE701
:10353000B4F8FA1000297FF467AF4FF403519B00F1
:10354000C4F2070119440125087820F00200002385
:103550000870E8E548F298040425C1F6FF74D570B8
:103560000D8814F0080F0CBF8822C822083142EAE7
:1035700005426160226062B651E6586A0838FFF77A
:10358000D5F91FE4D3F89C000838FFF7CFF9A0E481
:10359000D3F894000838FFF7C9F991E4D3F88C0008
:1035A0000838FFF7C3F982E4D3F884000838FFF73E
:1035B000BDF973E4D86F0838FFF7B8F965E4586FC0
:1035C0000838FFF7B3F957E4D86E0838FFF7AEF9BB
:1035D00049E4586E0838FFF7A9F93BE4D86D08387C
:1035E000FFF7A4F92DE4586D0838FFF79FF91FE4A1
:1035F000D86C0838FFF79AF911E4586C0838FFF7CF
:1036000095F903E4D86B0838FFF790F9FFF7F5BB9D
:10361000586B0838FFF78AF9FFF7E6BBD86A083815
:10362000FFF784F9FFF7D7BB62B601211170FFF7EE
:1036300084BA48F290040325C1F6FF748FE748F27C
:103640009804C1F6FF74022589E748F29004052525
:10365000C1F6FF7483E7EC30022519E748F29001C8
:103660000526C1F6FF71B3E648F290010326C1F6C4
:10367000FF71ADE648F29801C1F6FF710226A7E698
:1036800042F67441C2F20001CA68EAB142F68C42C5
:10369000C2F20002D1684D60D56062B6FFF74DBA44
:1036A00042F68C42E160C2F20002B6E562B60E78E4
:1036B0002B66731C0B70B0E462B60B7800200133EC
:1036C000C8F868000B70CFE442F68C42CD60C2F2BD
:1036D0000002E1E7402D2A4628BF4022A91A4FEAFE
:1036E000024E86180023012522E500BF0369D3F8A6
:1036F0004422B2F5817F03D9012303710020704772
:10370000D3F8442210B49C180132C3F8442284F840
:103710003C11012010BC70472DE9F0414DF60054DA
:10372000C1F6FF74D4F8A412D4F8A0020D7803787F
:10373000DBB203F02002EDB222B313F0100F94F8C5
:10374000F63400F08D80022B00F0F18094F8F6340E
:10375000032B00F0EC8094F8ED34082B00F0658228
:1037600094F8ED34092B00F0A38294F8ED34012B8A
:1037700000F00D8280230370D4F8A43202221A7064
:10378000BDE8F08102F0FF06EA0627D405F040020A
:1037900002F0FF0732BB03F0100303F0FF02002B1F
:1037A00000F09D8015F0010540F0E381D4F8D824A5
:1037B000D4F8DC349A4207D2D4F8D834E218013372
:1037C00092F8D453C4F8D834D4F8A8321D70D4F881
:1037D000A032D0221A70D4F8A41285E010236F060C
:1037E0000B7037D594F8ED244DF600530C2AC1F632
:1037F000FF7300F0508105F0040505F0FF07002D70
:1038000076D0D4F8A0320021D0220B2084F8ED0429
:10381000C4F8DC141A70D4F8A822D4F8041513786C
:103820004DF600555B0884F8EE34C1F6FF7511B112
:103830008847D5F8A822D4F8DC144DF60053C1F619
:10384000FF73002900F0928193F8D463167001236E
:10385000C4F8D834D4F8A43202221A70BDE8F0813A
:10386000022B00F0C98094F8F634032B00F0C480DA
:10387000D4F8D033D4F8F01402338B4200F07181C5
:1038800094F8ED34012B00F06781D4F8D033013384
:103890004DF600528B42C1F6FF7280F02C8192F8F7
:1038A000ED34012B00F02281D4F8D033D4F8A812E3
:1038B000D4F8A422581CC4F8D0032344097883F810
:1038C000C8120223137094F8ED34DBB24DF60052A7
:1038D000012BC1F6FF7200F0CC81BDE8F08194F8B5
:1038E000ED340C2B00F0CE8102230B70BDE8F0818B
:1038F00046F61151C0F2000194F8E30484F8F47420
:1039000004F0C8FDD4F8A032C0220C2184F8ED14D4
:10391000C4F8D0731A70D4F8A8321B785B0884F806
:10392000EE34D4F8A43202221A70BDE8F081D4F843
:103930000C251368988B4DF600530006C1F6FF73F3
:1039400004D593F8F604022800F04D8194F8F604AB
:103950004DF600530328C1F6FF7300F0A88048F22B
:103960002C01C4F2000110790968012282400A4248
:1039700000F00B8148F21E01C4F2000148F21F0260
:103980000870D3F80C15C4F20002097911700722EF
:10399000002183F8F61483F8ED24D3F82C250132A6
:1039A00004D0D3F82C250132C3F82C25EF0616D508
:1039B000042384F8ED34D4F824254DF60053013265
:1039C000C1F6FF7304D0D3F824250132C3F82425AF
:1039D000D4F8A422102100231170C4F8D834D4F8EC
:1039E000A03280221A70D4F8A43202221A70D4F8BD
:1039F0000835002B4CD170E7D4F80C251368998B4F
:103A00004DF600530906C1F6FF7304D593F8F6147A
:103A1000022900F0D68094F8F6144DF600530329DD
:103A2000C1F6FF7300F0588148F22C01C4F2000186
:103A300010790968012282400A4200F0A48048F20D
:103A40001E01C4F2000148F21F020870D3F80C15E1
:103A5000C4F2000209791170D3F8A0228021002558
:103A6000072083F8F65483F8ED041170D3F8A422EC
:103A700002211170D3F82C25013204D0D3F82C2563
:103A80000132C3F82C25D4F80835002B3FF425AFBC
:103A9000BDE8F0411847D3F80025002A3FF4ABAE4B
:103AA0000021C3F8CC13D3F8D0039047A3E60B78DA
:103AB0001B06FCD548F21C03C4F2000312791A70ED
:103AC000002384F8F634D4F8DC34D4F8A812013B8F
:103AD000C4F8D834D4F8D8342344022293F8D43329
:103AE0000B70D4F8A4321A70BDE8F08192F8F53466
:103AF000002B3FF4D9AED4F8A0320021B02284F8D4
:103B0000F5141A70D4F8D033D4F8A81294F8EC2431
:103B1000581CC4F8D0032344097883F8C812012A3A
:103B20004DF60053C1F6FF7300F00581D4F8A432BE
:103B300002221A7094F8ED244DF60053012AC1F6C2
:103B4000FF7362D0D3F8FC24002183F8ED14002A1F
:103B50003FF4B9AE9047B6E694F8F534002B7FF405
:103B600094AEE8230370D4F8F0148EE683F8D413EF
:103B70006CE6C0230370D4F8A832D4F8A4121B78E2
:103B800084F8ED74B0E6BDE8F081BDE8F08194F80A
:103B9000EC34012B0CBF8023B0230370D4F8A43283
:103BA00002221A70D4F818254DF600530132C1F6DE
:103BB000FF733FF468AFD3F818250132C3F8182516
:103BC00061E748F21F00C4F2000012790270D3F8D6
:103BD000A022E8201070D3F8A422032083F8F60472
:103BE0001170BDE8F08148F21F01C4F200011279A2
:103BF0000A70D3F8A022F0211170D3F8A422032177
:103C000083F8F6141070BDE8F081D3F8182501325E
:103C100004D0D3F818250132C3F81825D4F8083594
:103C2000002B3FF450AE98474DE605F0100303F02B
:103C3000FF02002B00F0878000231022042084F86C
:103C4000F63484F8ED040A70D4F8A02280211170B3
:103C5000D4F8A422C4F8D83402231370D4F824353D
:103C600001333FF410AFD4F824350133C4F82435C0
:103C700009E792F8F51409B1BDE8F08182F8F5344E
:103C8000BDE8F08146F6115184F8F42494F8E30479
:103C9000C0F2000104F0FEFBD4F8A8321B78D4F87F
:103CA000D023B2F5817FDBB265D9D4F8A4121BE62C
:103CB000EE066BD50422102384F8ED240B70D4F8A3
:103CC000A03280221A70D4F8A43202221A70D4F8DA
:103CD00024350133C7D1D6E648F21C01C4F20001F5
:103CE00012790A70D3F8A0220020B02183F8F604DC
:103CF0001170D3F8F024D3F8A80293F8EC14013A29
:103D0000C3F8D023D3F8D023551CC3F8D0531A449A
:103D1000007882F8C802012900F08180D4F8A4322A
:103D200002221A70D4F8FC34002284F8ED24002B0F
:103D30007FF4AEAED1E52822013AFDD1D3F8A0320E
:103D400080221A70F2E615F0010534D084F8F624CA
:103D5000D4F8D834002B6AD1022384F8ED34D4F897
:103D60001C35013304D0D4F81C350133C4F81C359C
:103D70008023037037E6D4F8D023D4F8A412A01817
:103D8000013280F8C832C4F8D023ADE5E9072ED55A
:103D90000223802284F8ED340270D4F8A422137038
:103DA000D4F81C3501333FF46EAED4F81C35013322
:103DB000C4F81C3567E6D4F8D8340133C4F8D834D5
:103DC000D4F8DC2493423FD394F8EC3484F8ED54D7
:103DD000012B0CBF8023B0230370D4F8A43202223D
:103DE0001A70D4F8F834002B7FF452AE75E594F8CD
:103DF000F634012B31D0D4F8F034012B4FF00A0205
:103E00000CBFE823E02384F8ED240370D4F8A82243
:103E1000D4F8A432127802221A70BDE8F081282268
:103E2000013AFDD1D3F8A03280221A7076E703233D
:103E300084F8ED34D4F82035013399D0D4F8203506
:103E40000133C4F8203593E794F8F634012B19D0E8
:103E5000D4F8D834D4F8A8123EE60223E12284F83C
:103E6000F6340270D4F80C1548F21B02C4F20002BA
:103E700009791170D4F8A812D4F8A4220978137023
:103E8000BDE8F0810223F12284F8F6340270D4F800
:103E90000C1548F21B02C4F2000209791170D4F823
:103EA000A82294F8D5131170D4F8A4221370BDE899
:103EB000F08100BF2DE9F0414DF60054C1F6FF74CA
:103EC000E168A0680D780378DBB203F02002EDB260
:103ED0001AB313F0100F94F85E3200F08580022BB5
:103EE00000F0E48094F85E32032B00F0DF8094F859
:103EF0005532082B00F0478294F85532092B00F018
:103F0000808294F85532012B00F0F48180230370F5
:103F1000E36802221A70BDE8F08102F0FF06EA06AB
:103F200024D405F0400202F0FF071ABB03F010038F
:103F300003F0FF02002B00F0948015F0010540F023
:103F4000CD81D4F84022D4F844329A4207D2D4F832
:103F50004032E218013392F83C51C4F840322369F0
:103F60001D70A368D0221A70E1687FE010236F06ED
:103F70000B7034D594F855224DF600530C2AC1F637
:103F8000FF7300F0428105F0040505F0FF07002DE6
:103F900070D0A3680021D0220B2084F85502C4F809
:103FA00044121A702269D4F86C1213784DF6005539
:103FB0005B0884F85632C1F6FF7509B188472A6953
:103FC000D4F844124DF60053C1F6FF73002900F0F7
:103FD000828193F83C6116700123C4F84032E36893
:103FE00002221A70BDE8F081022B00F0C18094F823
:103FF0005E32032B00F0BC80D4F83831D4F858126C
:1040000002338B4200F0628194F85532012B00F0AC
:104010005881D4F8383101334DF600528B42C1F645
:10402000FF7280F0208192F85532012B00F016814A
:10403000D4F838312169E268581CC4F838012344A7
:10404000097883F830100223137094F85532DBB2EC
:104050004DF60052012BC1F6FF7200F0B581BDE8AC
:10406000F08194F855320C2B00F0B78102230B70CD
:10407000BDE8F08146F69561C0F2000194F84B026C
:1040800084F85C7204F006FAA368C0220C2184F85C
:104090005512C4F838711A7023691B785B0884F8CC
:1040A0005632E36802221A70BDE8F081D4F8742217
:1040B0001368988B4DF600530006C1F6FF7304D5C4
:1040C00093F85E02022800F03E8194F85E024DF6FD
:1040D00000530328C1F6FF7300F0A38048F22C01BF
:1040E000C4F2000110790968012282400A4200F0FE
:1040F000FF8048F21E01C4F2000148F21F0208705E
:10410000D3F87412C4F20002097911700722002159
:1041100083F85E1283F85522D3F89422013204D03A
:10412000D3F894220132C3F89422EF0615D5042364
:1041300084F85532D4F88C224DF600530132C1F682
:10414000FF7304D0D3F88C220132C3F88C22E268CA
:10415000102100231170C4F84032A36880221A7025
:10416000E36802221A70D4F87032002B4AD176E745
:10417000D4F874221368998B4DF600530906C1F6E2
:10418000FF7304D593F85E12022900F0CC8094F8F6
:104190005E124DF600530329C1F6FF7300F0438110
:1041A00048F22C01C4F20001107909680122824012
:1041B0000A4200F09B8048F21E01C4F2000148F25E
:1041C0001F020870D3F87412C4F20002097911704A
:1041D0009A6880210025072083F85E5283F85502F3
:1041E0001170DA6802211170D3F89422013204D0E0
:1041F000D3F894220132C3F89422D4F87032002B01
:104200003FF42DAFBDE8F0411847D3F86822002AEB
:104210003FF4B9AE0021C3F83411D3F83801904708
:10422000B1E60B781B06FCD548F21C03C4F2000370
:1042300012791A70002384F85E32D4F8443221696E
:10424000013BC4F84032D4F840322344022293F8B0
:104250003C310B70E3681A70BDE8F08192F85D3272
:10426000002B3FF4E5AEA3680021B02284F85D1274
:104270001A70D4F83831216994F85422581CC4F8C3
:1042800038012344097883F83010012A4DF6005391
:10429000C1F6FF7300F0F280E36802221A7094F80E
:1042A00055224DF60053012AC1F6FF735BD0D3F8B7
:1042B0006422002183F85512002A3FF4C6AE9047CD
:1042C000C3E694F85D32002B7FF4A3AEE8230370BD
:1042D000D4F858129DE683F83C117CE6C0230370A5
:1042E0002369E1681B7884F85572BFE6BDE8F08168
:1042F000BDE8F08194F85432012B0CBF8023B02329
:104300000370E36802221A70D4F880224DF600533D
:104310000132C1F6FF733FF470AFD3F8802201324F
:10432000C3F8802269E748F21F00C4F20000127946
:1043300002709A68E8201070DA68032083F85E0241
:104340001170BDE8F08148F21F01C4F2000112793A
:104350000A709A68F0211170DA68032183F85E12FE
:104360001070BDE8F081D3F88022013204D0D3F878
:1043700080220132C3F88022D4F87032002B3FF43F
:1043800064AE984761E605F0100303F0FF02002BCE
:104390007BD000231022042084F85E3284F855027A
:1043A0000A70A26880211170E268C4F840320223CA
:1043B0001370D4F88C3201333FF41FAFD4F88C3231
:1043C0000133C4F88C3218E792F85D1209B1BDE8E8
:1043D000F08182F85D32BDE8F08146F6956184F89F
:1043E0005C2294F84B02C0F2000104F053F82369F8
:1043F0001B78D4F83821B2F5817FDBB25DD9E16852
:1044000034E6EE0663D50422102384F855220B709F
:10441000A36880221A70E36802221A70D4F88C32E2
:104420000133CBD1E9E648F21C01C4F20001127954
:104430000A709A680020B02183F85E021170D3F8E8
:104440005822186993F85412013AC3F83821D3F866
:104450003821551CC3F838511A44007882F83000CE
:10446000012979D0E36802221A70D4F8643200225C
:1044700084F85522002B7FF4C5AEF0E52822013ADE
:10448000FDD19B6880221A7006E715F0010532D035
:1044900084F85E22D4F84032002B64D1022384F8E1
:1044A0005532D4F88432013304D0D4F88432013345
:1044B000C4F884328023037052E6D4F83821E168CE
:1044C000A018013280F83030C4F83821CEE5E90771
:1044D0002CD50223802284F855320270E2681370D2
:1044E000D4F8843201333FF488AED4F884320133F7
:1044F000C4F8843281E6D4F840320133C4F8403243
:10450000D4F8442293423BD394F8543284F8555261
:10451000012B0CBF8023B0230370E36802221A70C2
:10452000D4F86032002B7FF46DAE98E594F85E32DB
:10453000012B2DD0D4F85832012B4FF00A020CBFBA
:10454000E823E02384F8552203702269E368127897
:1045500002221A70BDE8F0812822013AFDD19B6841
:1045600080221A707EE7032384F85532D4F888320B
:1045700001339FD0D4F888320133C4F8883299E7E8
:1045800094F85E32012B16D0D4F8403221695CE6F3
:104590000223E12284F85E320270D4F8741248F2E9
:1045A0001B02C4F20002097911702169E2680978DE
:1045B0001370BDE8F0810223F12284F85E320270AC
:1045C000D4F8741248F21B02C4F200020979117087
:1045D000226994F83D111170E2681370BDE8F08112
:1045E00038B503690546D3F84402B0F5817F1AD87F
:1045F0001446D3F84422D3F84402C2F58172013242
:1046000003F59E73A242184402D2012314462B7173
:10461000224605F03DF82A69D2F844322344C2F814
:104620004432204638BD01232B71002038BD00BF25
:1046300042F65042C2F2000213681BB15A8813447A
:10464000187A704742F64C43C2F200031B78CBB194
:1046500070B472B642F65441C2F200018B684BB19D
:1046600042F66440C2F200001D8884885E688E6055
:10467000611B818062B613603BB15A881344187A7B
:1046800070BC70474FF0FF3070474FF0FF30F7E7D6
:10469000F8B572B106460F4614460025336817F880
:1046A000011B1B6830469847013C0544F6D128465B
:1046B000F8BD1546FBE700BF4EF6EC434EF6ED4263
:1046C000C1F6FF72C1F6FF731B781078DBB2C0B27F
:1046D00083422CBF3F3000F1FF30C01A704700BF4B
:1046E00048F23403C4F204031B685B0520D54FF481
:1046F0002043C4F206034021DA7802F0CB02DA70DC
:104700005974D87842F69F4240F03400C2F2000259
:104710004EF6A461D870C1F6FF711278096842F6AE
:104720009E43C2F20003D2B21A7009B100230B708B
:10473000704700BF026842F27D031268C0F20003B6
:104740009A422DE9F0475FFA81F87AD148F23403B2
:10475000C4F204031B685A055DD54EF6A46AC1F67F
:10476000FF7ADAF804300BB101221A704EF6EC47EA
:10477000C1F6FF774EF6ED453C7801343F2C88BFFB
:104780004FF000094FF4204694BF5FFA84F94C467D
:10479000C1F6FF75C4F206062B78A3422AD1EFF3C7
:1047A0001383002B3AD1EFF31083002B36D1EFF3B4
:1047B0000582002A42D00F2A05D94EF2F033CEF2FC
:1047C000000313441B78EFF3118212B1934228BF08
:1047D0001346402B22D9B3F5807FDDD142F6A443A6
:1047E000C2F200031B78002BD6D103F0C9FE2B7850
:1047F000A342D4D04EF6EE434FF420425444C1F6C7
:10480000FF73C4F206020120BC2184F808801870EE
:1048100087F80090D1700120BDE8F08733791B063E
:10482000BAD52B7801333F2B86BF00221346DAB26C
:1048300053441B7ADBB2F3712A70ADE74FF48073F7
:10484000C1E74146BDE8F047104700BF48F23403D6
:10485000C4F204031B685A0577D52DE9F0474EF6DC
:10486000A46AC1F6FF7ADAF804300BB101221A709B
:104870004EF6EC48C1F6FF784EF6ED4598F800404C
:1048800001343F2C88BF4FF000094FF4204694BFFD
:104890005FFA84F94C460F46C1F6FF75C4F206066E
:1048A0002B78A3422AD1EFF31383002B3AD1EFF3F5
:1048B0001083002B36D1EFF30582002A42D00F2A55
:1048C00005D94EF2F033CEF2000313441B78EFF318
:1048D000118212B1934228BF1346402B22D9B3F55F
:1048E000807FDDD142F6A443C2F200031B78002B87
:1048F000D6D103F045FE2B78A342D4D04EF6EE433A
:104900004FF420425444C1F6FF73C4F20602FFB2D2
:104910000120BC212772187088F80090D170012006
:10492000BDE8F08733791B06BAD52B7801333F2BCE
:1049300086BF00221346DAB253441B7ADBB2F3710E
:104940002A70ADE74FF48073C1E70120704700BFC4
:10495000026842F27D031268C0F200039A422DE918
:10496000F0475FFA81F87AD148F23403C4F20403C5
:104970001B685A055DD54EF6A46AC1F6FF7ADAF8CF
:1049800004300BB101221A704EF6EC47C1F6FF77E6
:104990004EF6ED453C7801343F2C88BF4FF00009BE
:1049A0004FF4204694BF5FFA84F94C46C1F6FF7578
:1049B000C4F206062B78A3422AD1EFF31383002B0F
:1049C0003AD1EFF31083002B36D1EFF30582002AA2
:1049D00042D00F2A05D94EF2F033CEF20003134431
:1049E0001B78EFF3118212B1934228BF1346402B7C
:1049F00022D9B3F5807FDDD142F6A443C2F2000391
:104A00001B78002BD6D103F0BBFD2B78A342D4D06A
:104A10004EF6EE434FF420425444C1F6FF73C4F205
:104A200006020120BC2184F80880187087F80090E5
:104A3000D1700120BDE8F08733791B06BAD52B78F9
:104A400001333F2B86BF00221346DAB253441B7A50
:104A5000DBB2F3712A70ADE74FF48073C1E74146D2
:104A6000BDE8F047104700BF2DE9F84F42F6A445D6
:104A70004EF6EE4442F69E4942F69F4842F6A04763
:104A800042F6A146C2F20005C1F6FF74C2F2000967
:104A9000C2F20008C2F20007C2F200062B7823B16E
:104AA0002378002BFCD1BDE8F88F42F6A24E42F6E7
:104AB000A3401A46C2F2000EC2F20000237803F0AF
:104AC000FF01002B3BD099F8003098F800303B787C
:104AD00033789EF800300378EFF305830122002B32
:104AE000ECD12B70EFF3108E72B642F6A843C2F2EF
:104AF00000031868F0B142F6AC4AC2F2000A9AF814
:104B00000010B9B9D0F814C08AF80020C3F800C06A
:104B1000BCF1000F01D0CCF81810BEF1000F00D18D
:104B200062B64FF0000B80F81DB0836898478AF892
:104B300000B0B3E7BEF1000FB0D162B6AEE70AB97C
:104B4000BDE8F88F2970FBE742F69E4242F69F438C
:104B5000C2F20002C2F2000312781B78DBB29A4262
:104B60000CD00133402B4EF6A46228BF0023C1F6BF
:104B7000FF72134493F84800C0B270474FF0FF3003
:104B8000704700BF48F23403C4F20403186810F4FD
:104B900080601CD012290BD0142919D04FF4204367
:104BA000C4F2060300205A7B02F0FE025A737047DB
:104BB0004AF20C03C4F2040340F202321A604FF4CA
:104BC0002043C4F2060301205A7B02435A73704704
:104BD0004CF21403C4F2040340F202321A60EEE70E
:104BE00048F23403C4F20403186810F4806024D03F
:104BF000212906D94EF6A463C1F6FF730020186080
:104C000070474AF64C43C0F2000303EBC10210B4F4
:104C10004EF6A46453F831305268C1F6FF74012097
:104C20004FF4A27183F880022360116011680024A0
:104C300021F0200111601C7010BC70470AB141F0D6
:104C400080014DF61443C1F6FF73187888421BD0DB
:104C500010B448F23404C4F204042468640511D585
:104C600000F07F00012823D0052814D0002A01F08D
:104C70007F020CBF4FF451704FF45870012A11D0CD
:104C8000052A02D0197010BC70474CF21C02C4F205
:104C900004021060F6E74CF21C00C4F20400002489
:104CA0000460E3E74AF24402C4F204021060E9E758
:104CB0004AF24400C4F2040000240460D6E700BFB6
:104CC0004EF6EF43C1F6FF731A7891420DD048F2C9
:104CD0003400C4F204000068400505D5F2B1152A7D
:104CE0000CD099B1152901D0197070474CF21802F7
:104CF000C4F2040240F213301060F5E74CF21802DF
:104D0000C4F20402002010600029EBD14AF24002F4
:104D1000C4F2040240F213301060E5E74AF24000AA
:104D2000C4F204000260DCE74EF6EE42C1F6FF7208
:104D30001378002BFCD14AF64C432129C0F2000322
:104D400023D803EBC10053F8312043684FF4A2711C
:104D5000012082F880021960196821F02001196091
:104D600092F8801249B9196821F0020119604EF6D3
:104D7000A463C1F6FF735A6070474EF6A463C1F690
:104D8000FF7382F800015A60704753F831204EF6E5
:104D9000A463C1F6FF735A60704700BF48F2340342
:104DA000C4F204031B685B056DD52DE9F04F42F694
:104DB000A34842F69E4642F69F4542F6A4474EF669
:104DC000EE4442F6A04B42F6A14A42F6A249C2F294
:104DD000000883B0C2F20006C2F20005C2F200076A
:104DE000C1F6FF74C2F2000BC2F2000AC2F200095F
:104DF00041463B78002B4FD02378002BFCD14EF25C
:104E000084114FF42042CEF20001C4F206024EF6A5
:104E1000EF434FF400540020C1F6FF730C60D070D4
:104E20001B7843B3152B06D14CF21803C4F20403CC
:104E300040F203121A604DF61443C1F6FF731B785B
:104E400003F07F03012B1FD0052B06D14CF21C036E
:104E5000C4F2040340F203121A604EF6A463C1F6D2
:104E6000FF7300221B6832702A700BB101221A7086
:104E700003B0BDE8F08F4AF24003C4F2040340F2ED
:104E800003121A60D7E770474AF24403C4F20403DE
:104E900040F203121A60E0E79C46237803F0FF0219
:104EA000002B3CD033782B789BF800309AF80030F8
:104EB00099F800300B78EFF305834FF0010C002BCD
:104EC000EBD13B70EFF3108E72B642F6A843C2F2FC
:104ED00000031868E8B142F6AC48C2F2000898F83E
:104EE00000200092AAB9426988F800C01A600AB18D
:104EF000009B9361BEF1000F00D162B6002343779F
:104F00008268019100939047009B88F800300199D6
:104F10006FE7BEF1000F7FF46CAF62B669E7BCF1DA
:104F2000000F3FF46CAF3A7069E700BF48F23400FD
:104F3000C4F20400F0B504684EF6EF43C1F6FF7307
:104F400044F4806442F69E4E42F69F474EF6EC468D
:104F50000460C1F6FF764EF6ED45C2F2000EC2F2D5
:104F600000074EF6EE44C1F6FF7593F800C0C1F697
:104F7000FF7400234FF4E0508EF80030C0F64E600E
:104F80003B7033704E082B7030442370B0FBF1F14E
:104F9000BCF1000F00F08780BCF1150F5DD04DF61D
:104FA0001443C1F6FF731B78012B64D0052B72D01C
:104FB0001F2969D800210E4601274FF42043C4F26F
:104FC00006034EF22D444EF204101E70CEF2000085
:104FD00004250226CEF200045F704FF0880E99720D
:104FE0003C279D704FF40051DE7440265D7583F8B8
:104FF00010E0DF70267001609978500701F0EC0135
:1050000002F003034FF4204043EA0103C4F2060018
:1050100002F00F0148BF43F01003042983704AD007
:105020004FF42043C4F20603D1065B794FF42041CC
:1050300003F0EF03C4F2060148BF43F010034B71C5
:105040008B7992064FF4204203F0EF03C4F206027C
:1050500048BF43F010039371F0BD4CF21803C4F243
:10506000040340F2133018604DF61443C1F6FF7389
:105070001B78012B9AD14AF24403C4F204034FF483
:1050800051701F29186095D9C1F34436C1F34717F1
:1050900001F01F0191E74CF21C03C4F204034FF42A
:1050A0005170186084E74AF24003C4F2040340F2EE
:1050B0001330186073E7837943F040038371AFE7DF
:1050C00048F23402C4F20402F0B510684EF6EF4321
:1050D000C1F6FF7340F4806042F69E4742F69F4659
:1050E0001060C2F200064EF6EC454EF6ED444EF668
:1050F000EE40C2F20007C1F6FF75C1F6FF74C1F6BB
:10510000FF7093F800E04FF4E05200233B70C0F6CC
:105110004E6233704E082B7032442370B2FBF1F1B3
:105120000370BEF1000F56D0BEF1150F2DD04DF615
:105130001443C1F6FF731B78012B34D0052B42D0EA
:105140001F2939D800210E4601254FF42043C4F20F
:1051500006034EF22D404EF20412CEF200001E70F5
:1051600004245D70CEF200024FF0020E88273C2628
:10517000402599729C704FF4005183F813E05C75E0
:105180001F74DE7005701160F0BD4CF21803C4F29C
:10519000040340F213321A604DF61443C1F6FF7354
:1051A0001B78012BCAD14AF24403C4F204034FF422
:1051B00051721F291A60C5D9C1F34436C1F347158E
:1051C00001F01F01C1E74CF21C03C4F204034FF4C9
:1051D00051721A60B4E74AF24003C4F2040340F289
:1051E00013321A60A3E700BF38B508460D4604F035
:1051F00067FD04460146284602F0F2F9204638BD14
:105200002DE9F04104460068A368884282B00D464B
:105210000AD8C1188D4207D22F1A4FF001083AB9A7
:10522000204602B0BDE8F0814FF00008002AF7D018
:1052300061689E188E4213D8B8F1000F0BD0C119C7
:10524000184404F025FA236800229A552046A660E7
:1052500002B0BDE8F0812946184404F0B9FCF5E736
:10526000711C019204F01CFE0028D9D0A368019A99
:1052700084E84100002BDFD103702068A368DBE7DE
:1052800010B5036814465B689847204610BD00BF00
:1052900038B542F23C34C2F2000494F8183883B3B3
:1052A000012B04BF022384F8183894F8193842F20D
:1052B0003C350CBF04F114000020C2F20005002BA5
:1052C0003DD1D5F81C08D0B1012384F8193884F8F1
:1052D0001A3803F027FC94F81838BBB1012B16D00C
:1052E00094F8193842F23C350020C2F20005EBB9BF
:1052F000D5F81C0850B1012384F8193838BD94F84A
:105300001838002284F81A28002BE7D138BD022370
:1053100084F8183894F8193842F2503042F23C358B
:10532000C2F20000C2F20005002BE1D005F50262D6
:1053300095F82D1802F054FBC5F81C08DAE705F5BE
:10534000026295F82D1802F04BFBC5F81C08BAE76D
:105350002DE9F04F022085B000F00EFD64280CDC32
:105360000028C0F2F58241F6F323C6F6CA3383FB68
:105370000023C617C6EBE30601E0052664204DF6C0
:105380003043C1F6FF73186041F2160441F2100574
:1053900020466FF07F41013C02F0AEFBAC42F7D1FA
:1053A0006FF07F4141F2280002F0A6FB6FF07F41D1
:1053B00041F22D0002F0A0FB6FF07F4141F242006C
:1053C00002F09AFB6FF07F4141F23D0002F094FB46
:1053D0006FF07F4141F2500002F08EFB6FF07F4191
:1053E00041F2550002F088FB6FF07F4141F2670007
:1053F00002F082FB6FF07F4141F2620002F07CFB21
:105400006FF07F4141F2770002F076FB6FF07F4151
:1054100041F27C0002F070FB6FF07F4141F293009B
:1054200002F06AFB6FF07F4141F28E0002F064FBF4
:1054300041F2A20441F2A80520466FF07F410134F9
:1054400002F05AFBAC42F7D16FF07F4141F2B60057
:1054500002F052FB6FF07F4141F2B50002F04CFBCD
:10546000731CC0F2B7814EF6F143C1F6FF731B788F
:10547000002B40F09E804EF6F043C1F6FF734FF4D0
:10548000254A1B78C0F2FF0A002B0CBF4FF47F4364
:105490005346019306F16A03692B029300F0678279
:1054A0004AF210132126C0F200034FF48479B34668
:1054B00003934FF0010808270C256A244E4649E063
:1054C0005D452A46B8BF5A46142A4CDCBAF1160F7D
:1054D00005D05D452A46B8BF5A46152A5ADDB8F1AF
:1054E000010F00F0878005EB06094FF40A73A9F15C
:1054F000160003FB0700019902F0FEFABAF1170F3C
:105500004BDC4FF40A73A9F1170003FB0700019964
:1055100002F0F2FABAF1180F52DCA9F118004FF4B8
:105520000A7303FB0700019902F0E6FA0134029BBB
:10553000E4B29C4200F38880C4F17502039B02EB45
:10554000420203EBC2025568D2F808B056691769E7
:10555000D2F80C805D45AA46A8BFDA46BAF1150F0D
:1055600007F1FF37ACDCB8F1010F35D005EB0609C8
:105570004FF40A73A9F1150003FB0700019902F02B
:10558000BBFABAF1160FB0DD5D452A46B8BF5A46E0
:10559000152AA4DCBAF1170F05DD5D452A46B8BF10
:1055A0005A46162A09DDB8F1010F30D005EB06097D
:1055B000A7E74FF47F0301936CE7BAF1180F05DDFD
:1055C000AB455B46B8BF2B46172BAFDDB8F1010FDB
:1055D0002AD005EB0609A0E706F115004FF40A737F
:1055E000401B03FB0700019902F086FABAF1160F7F
:1055F0003FF76FAF06F116004FF40A73401B03FB31
:105600000700019902F078FABAF1170FC5DC06F12C
:1056100017004FF40A73401B03FB0700019902F0C7
:105620006BFABAF1180FCBDC06F118004FF40A73CD
:10563000401B03FB0700019902F05EFA0134029B54
:10564000E4B29C427FF778AF6F2C00F2C080C4F1C7
:1056500075034AF21012C0F2000203EB430302EB9F
:10566000C3035D68D3F80890D3F814A01A69D3F87F
:105670000CB04AF21013C0F2000301934F4640E011
:10568000AF423B46B8BF2B46142B42DC162E05D04A
:10569000AF423B46B8BF2B46152B4FDDBBF1010F88
:1056A00072D005EB0A084FF40A73A8F1160003FB49
:1056B000090002F011FB172E42DC4FF40A73A8F127
:1056C000170003FB090002F007FB182E46DCA8F1C7
:1056D00018004FF40A7303FB090002F0FDFA0134CD
:1056E000E4B2702C73D0019AC4F1750303EB430349
:1056F00002EBC3035D689F68D3F814A01A69D3F85E
:105700000CB0AF423E46A8BF2E46152E02F1FF391F
:10571000B6DCBBF1010F2CD005EB0A084FF40A737D
:10572000A8F1150003FB090002F0D6FA162EBADD27
:10573000AF423B46B8BF2B46152BAFDC172E05DD1D
:10574000AF423B46B8BF2B46162B05DDBBF1010F20
:1057500025D005EB0A08B0E7182E04DDAF42B8BF2C
:105760002F46172FBBDDBBF1010F23D005EB0A0835
:10577000ADE70AF115004FF40A73401B03FB090063
:1057800002F0AAFA162E83DC0AF116004FF40A730F
:10579000401B03FB090002F09FFA172ED0DC0AF130
:1057A00017004FF40A73401B03FB090002F094FA40
:1057B000182ED3DC0AF118004FF40A73401B013491
:1057C00003FB0900E4B202F087FA702C8BD105B01C
:1057D000BDE8F08F4AF21014C0F200043EE0AE4281
:1057E0003346B8BF2B46142B4BDCBAF1160F05D04D
:1057F000AE423346B8BF2B46152B63DDBBF1010F1C
:105800007ED009EB05084FF40A73A8F1160003FBDC
:1058100007004FF47F0102F06FF9BAF1170F54DC63
:105820004FF40A73A8F1170003FB07004FF47F0140
:1058300002F062F9BAF1180F39DCA8F118004FF440
:105840000A7303FB07004FF47F0102F055F94AF297
:105850008003183CC0F200039C42B8D0D4F80C512D
:10586000D4F81061D4F81871D4F81C91D4F814B19C
:10587000AE42B246A8BFAA46BAF1150F07F1FF37EC
:10588000ADDCBBF1010F2CD009EB05084FF40A7316
:10589000A8F1150003FB07004FF47F0102F02CF97B
:1058A000BAF1160FAFDDA3E7BAF1180F04DDAE426F
:1058B000B8BF2E46172ECADDBBF1010F3CD009EB55
:1058C0000508BAE7BAF1170F05DDAE423346B8BF97
:1058D0002B46162BE8DDBBF1010F1FD009EB0508A5
:1058E0009EE709F115004FF40A73401B03FB070004
:1058F0004FF47F0102F000F9BAF1160F3FF778AFCD
:1059000009F116004FF40A73401B03FB07004FF424
:105910007F0102F0F1F8BAF1170FD6DC09F1170098
:105920004FF40A73401B03FB07004FF47F0102F0A2
:10593000E3F8BAF1180FBADC09F11800401B4FF474
:105940000A7303FB07004FF47F0102F0D5F87EE7EE
:105950004DF63043C1F6FF7341F6F3221B68C6F6DD
:10596000CA3282FB0312DB17C3EBE2060CE54FF0F1
:10597000010B08224FF4847A4FF021090C256A2488
:1059800077E600BF2DE9F04F022085B000F0F4F972
:10599000642805DC0028C0F210814310029302E065
:1059A0003223029364204DF63043C1F6FF73186032
:1059B00040F2452440F2312520466FF07F41013C02
:1059C00002F09AF8AC42F7D14AF21013C0F2000389
:1059D00003931C46A3F5966A4FF40A7B1CE0AF4282
:1059E0003946B8BF29460C2929DCB8F1200F04DD5F
:1059F000BD42B8BF3D461F2D0BDD012A43D007EB4A
:105A00000906A6F120000BFB03006FF07F4102F0B6
:105A100073F8183C544542D0D4F8B477D4F8B8574A
:105A2000D4F8C037D4F8C497D4F8BC27AF42B846EE
:105A3000A8BFA846B8F10D0F03F1FF33CFDC012A50
:105A400011D007EB0906A6F10D000BFB03006FF068
:105A50007F410192009302F04FF8B8F1200F009BB4
:105A6000019ACEDDC4E709F10D00C01B0BFB03005A
:105A70006FF07F410192009302F03EF8B8F1200FE1
:105A8000009B019AB4DC09F12000C01B0BFB030052
:105A90006FF07F41183C02F02FF85445BCD140F61E
:105AA000846440F6986520466FF07F41013402F02F
:105AB00023F8AC42F7D140F66B6440F65F652046B0
:105AC0006FF07F4102F018F8C4F5E55004306FF034
:105AD0007F4102F011F8A4F14D006FF07F4102F018
:105AE0000BF8C4F5E2501830013C6FF07F4102F032
:105AF00003F8AC42E3D1029B002BC0F2DF804EF6EC
:105B0000F143C1F6FF731B78002B53D14EF6F043DF
:105B1000C1F6FF734FF425471B78002BC0F2FF0737
:105B200008BF4FF47F47029B012B40F31D811E46A7
:105B30004AF6AC0B2236C0F2000B012403234FF4CB
:105B4000EF702B2102224FF023088A4203F1FF3528
:105B500091464FF40A73A8BF8946012C03FB05F355
:105B600035D08A4200EB0205B8BF0A461D44924672
:105B70000E2404E0013401F0BFFF202C09D04C4575
:105B80003946A5EB0400F5DA5445F3DD0134202C49
:105B9000F5D108F10108B045ABF1180B2DD0DBF8B9
:105BA0001820DBF81C10DBF82800DBF82430DBF8C9
:105BB0002040CAE74FF47F07B5E74DF63043C1F602
:105BC000FF731B6803EBD3735B100293F0E68A420A
:105BD000A0EB0200B8BF0A46C41892460E2504E0A6
:105BE00001F08AFF0135202DD3D04D4504EB05008F
:105BF0003946F5DA5545F5DCF2E7542E5BDC039BBC
:105C0000C6F1750000EB400003EBC0000C3050F80B
:105C1000082C50F8041C29C806EB46084FEAC808AF
:105C2000C8F52E68039C08F104084444A0464FF4CC
:105C30000A778A4203F1FF349146A8BF89460128BA
:105C400007FB04F322D08A421544B8BF0A461D441C
:105C500092460E2404E0013402F03EF8202C08D0D5
:105C60004C45A5EB0400F6DA5445F4DD0134202C54
:105C7000F6D10136552EA8F118081CD008F12000E5
:105C8000D8F81820D8F81C1029C8D2E78A42A5EB0A
:105C90000204B8BF0A461C4492460E2504E002F0F6
:105CA0001BF80135202DE4D0A94504EB0500F6DDF5
:105CB0005545F6DCF3E705B0BDE8F08F4AF6AC08D1
:105CC000C0F200080120A8F5936703254FF4EF7296
:105CD0002B2102234FF40A76994205F1FF358946BC
